:020000040800F2
:10000000780A0020C9000008EF0000086707000810
:1000100000000000000000000000000000000000E0
:10002000000000000000000000000000F3000008D5
:100030000000000000000000F5000008E90A0008C8
:10004000F9000008F9000008F9000008F9000008AC
:10005000F9000008F9000008F9000008F90000089C
:1000600000000000F9000008F9000008F90000088D
:10007000F9000008F9000008F9000008F90000087C
:10008000F90000080000000000000000F90000086E
:1000900000000000F9000008F9000008F90000085D
:1000A00000000000F9000008000000005D0D0008DD
:1000B0000448854600F0BCF900F048F800480047C5
:1000C000352D0008780A00200C4880F308880C4879
:1000D0000168090E0B4A914205D10B480B4901609A
:1000E0000B480C4901600C4880470C480047FEE76C
:1000F000FEE7FEE7FEE7FEE7FEE70000780A0020E5
:10010000040000001F000000181002400100000061
:100110000000014000000000ED0A0008B1000008E6
:1001200030B50B46014600202022012409E00D468F
:10013000D5409D4205D31D469540491B2546954017
:1001400040191546521E002DF1DC30BD70B5054C2E
:10015000054D03E0206800198047241DAC42F9D109
:1001600070BD0000643C0008683C0008F8B5024619
:100170004A40D40F42004B0052085B089A4202D218
:100180000246084611464A0023D0C30D4A00DDB29C
:10019000120EAD1A202D35DA49020126490AF6055C
:1001A0008A19002C00D0524220214F1B1146B94021
:1001B0002A411018C20D9A4221D0002C17D0012DCF
:1001C00008DCDA05801AD20F8019D207DBB200F002
:1001D000F5F8F8BDDA05801A012340001B06C018A7
:1001E00080185A428018CA0F1043490007E0490896
:1001F000C2071143DA05801A80194008801800F000
:10020000D5F8F8BD61000122511A001BF7E7012261
:10021000D2075140AAE70122D2075040A6E7024682
:1002200070B54A40D30FDB0740002DD04A002AD0DA
:10023000010E140E000212020919400A520A841813
:10024000E50104465443000A120A2E045043A4193F
:100250004219200CC543AA18120C0125AD03521CEB
:10026000521912047F39240400D0521C104301D4C7
:100270004000491EC2B20C06C0092018401C4008AC
:10028000802A02D003E0002070BD40084000002911
:1002900000DA0020184370BD70B502464A40D50F01
:1002A00040004A00ED0740085208002814D0002AF8
:1002B00012D0C40DD30D41020120C0055202490ADB
:1002C000520AE41A091812187D34914201D3641CB1
:1002D00000E04900002C01DA002070BD00239142AB
:1002E00001D3891A0343400849000028F7D10029A7
:1002F0000AD0914202D10121C90705E0914201D201
:10030000012101E00121C943E005C018401900F0B6
:100310004DF870BD420005D04200120E52428A4292
:1003200001DB00207047C90508187047C217C10FCC
:10033000504010B54018CA079623002100F03EF83F
:1003400010BD10B500229623114600F037F810BDFD
:10035000C20F410040020123400ADB05D207090E0B
:10036000C0187F2901DA00207047962903DC962304
:10037000591AC84001E096398840002AF4D040421A
:10038000704700000122D207002800DB101A002964
:1003900000DB511A814270470122D207002800DB9E
:1003A000101A002900DB511A88427047002904DA2C
:1003B000401C490001D140084000704770B400243F
:1003C000050C05D11024000402D1002921D01124EC
:1003D000050E01D100020834050F01D10001241DD2
:1003E000850F01D18000A41C002801DB4000641CA3
:1003F000002908D020252E1B0D46F540A14000D035
:1004000001212943084301061B1B000ADB1D02D5FD
:10041000002070BC7047DB05181880180029F8DA36
:10042000401C4900F5D170BC4008400070470000F6
:10043000064C0125064E05E0E36807CC2B430C3C37
:1004400098471034B442F7D3FFF736FE443C000817
:10045000643C000870B58C180578401C6B075B0F76
:1004600001D10378401C2A1106D10278401C03E018
:1004700006780E70401C491C5B1EF9D12B0705D471
:100480000023521E0DD40B70491CFAE70378401C60
:10049000CB1A921C03E01D780D70491C5B1C521E88
:1004A000F9D5A142D8D3002070BD836A0B43836283
:1004B000426170470029816801D0012200E00222D8
:1004C0001143816070470029C16802D001221143A5
:1004D00001E049084900C1607047C26802239A439D
:1004E000C260C2680A43C26070478268002101236B
:1004F000DB071A4382600F231B038268491CD20F5B
:10050000D207994201D0002AF7D18168002901DB86
:10051000006C70470020704730B5C268084B8C688B
:100520001A400B680D792343CC686D032C43234399
:100530000C69496923430B431343C36030BD00007A
:1005400003D2FFFF816804221143816070470021BC
:10055000016001718160C16001614161704700000B
:100560000122054992050028886801D0104300E067
:10057000904388607047000000270140002901680F
:1005800002D00122114301E0014A1140016070478D
:10059000FEFF000030B503680C4A0C6A13408A68FD
:1005A0004D6922430C692C4322438C692243CC6958
:1005B00022434C6A22438C6A22431A430260CA686F
:1005C00042600A6882604968C16030BD0F80FFFFE9
:1005D000F0B50B2706463F04384600F067F80428BC
:1005E0000FD1084C206902252843206166612069EB
:1005F000402108432061384600F058F82169A9439A
:100600002161F0BD0020024008490420CA68D207D9
:1006100001D001207047CA68D20601D50220704778
:10062000C9684907FBD5032070470000002002403D
:100630000248016980221143016170470020024095
:10064000F8B5064600200B273F0400900D463846BB
:1006500000F02CF8042815D10B4C20690121084327
:1006600020613580384600F021F8042806D1B61CF8
:10067000290C00963180384600F018F821694908A5
:1006800049002161F8BD00000020024004480169D2
:10069000090603D5034941600349416070470000E2
:1006A0000020024023016745AB89EFCD00B503462A
:1006B000FFF7AAFF02E0FFF7A7FF5B1E012803D0A8
:1006C000002B00D1052000BD002BF4D1FAE7F0B5D6
:1006D0000022032501230C6893401C409C422AD130
:1006E0000C79012C01D0022C12D1876854002E46BF
:1006F000A640B74387604E79A6408468264386604B
:1007000084889C43848084888B7993401C438480B4
:10071000066853002C469C40A64306600E79076885
:100720009E403E430660C668A643C660CC799C40A6
:10073000C3681C43C460521C102ACBD3F0BD4B07C6
:10074000DB0E9A40C90810B589000818016A0F2409
:100750009C40A1430162016A1143016210BD018501
:10076000704781617047052001F0F8FB002901689E
:1007700002D00122114301E049084900016070479D
:10078000012292030029416801D0114300E0914306
:10079000416070470246926900200A4200D0012061
:1007A0007047000010B502685208520002600268EB
:1007B000134B8C681A4024024B6814432343036094
:1007C0000F230A681B069A430261026801231A4339
:1007D000026000228260C2600B698A691A438260EB
:1007E00082680123DB031A438260CA6803681343EB
:1007F00003604268034B49691A401143416010BDD0
:10080000FFE0CF00FF7FFF07406AC0B27047816200
:100810007047000070B5049D44688905890D120475
:10082000034E11431943344029432143416070BDB5
:10083000009800FC30B5827801240178002A15D098
:100840008B080E4A9B009A1813688907C90EFF256A
:100850008D40AB434578AD072D0E8D401D4315608F
:100860000078C006C00E8440054804E0C806C00EEB
:10087000844003488030046030BD000000E400E0A4
:1008800000E100E070B5FF2500210446AD05C94335
:10089000FFF740FD06460F4960100C1A214630460E
:1008A000FFF7BDFC2146FFF7BAFC2946FFF7B3FC72
:1008B0002146FFF7B4FC044601463046FFF7AFFC83
:1008C0002146FFF7ACFC2946FFF7A5FC2146FFF7C0
:1008D000A6FC70BDDF59375F044A0029516901D079
:1008E000014300E081435161704700000010024065
:1008F000044A0029D16901D0014300E08143D1615C
:100900007047000000100240044A0029916901D09C
:10091000014300E0814391617047000000100240F4
:10092000F8B5464E0446716800200C22444D114033
:1009300005D0042903D0082903D00C2918D025603C
:1009400018E07168706803228902D2030F0F10400B
:10095000BF1C002809D0F06A0107090F2846491C6E
:10096000FFF7DEFB7843206004E036487843FAE77F
:10097000354921607168354F0906090F7B5C216894
:100980000A46DA40626073685B055B0FFB5CDA4025
:10099000A260336BDB0501D42D4B05E073685B046B
:1009A00001D4530800E09308E360336B5F06294BE2
:1009B00003D4284F1237276100E02361376BFF060D
:1009C00001D4656100E06161376BBF070ED0376B02
:1009D000BF07BF0F012F0BD0376BBF07BF0F022F11
:1009E00008D0376BFF43BF0706D006E0A26104E0E2
:1009F000A16102E0A36100E0A561376BBF03BF0FF7
:100A00000FD0326B9203920F012A0CD0316B890305
:100A1000890F022909D0316B8903890F032906D078
:100A200006E0E26104E0E16102E0E36100E0E5612B
:100A3000316B090600D404482062F8BD0010024062
:100A400000127A0000093D00006CDC022502002043
:100A5000809FD5000080000004490A6B10239A4350
:100A60000A630A6B02430A637047000000100240E9
:100A7000044A0029116801D0014300E0814311605C
:100A800070470000000001400CB50020009001906C
:100A90001349112008601348416841604168416072
:100AA00041687B22D2039143416041680522D20410
:100AB000114341600168012212061143016001687F
:100AC0008901FCD54168890889004160416802229A
:100AD0001143416041680907890F0229FAD10CBD11
:100AE00000200240001002407047000010B514487A
:100AF00001680122114301604168124A11404160BE
:100B00000168114A11400160016801229204914379
:100B1000016041683F22120491434160C16A0909A2
:100B20000901C162016BFF22543291430163416BA1
:100B300049084900416300218160FFF7A5FF10BD0E
:100B4000001002400CB8FF08FFFFF6FE00290188E4
:100B500002D00122114301E0490849000180704799
:100B600040300029818803D00122D203114301E0E3
:100B70004904490C8180704770B5028C52085200BC
:100B80000284048C8288038B7025AB439B080D88FC
:100B90009B001D4302239C438E894B882643104CA7
:100BA0003343A04208D00F4CA04205D00E4CA042C7
:100BB00002D00E4CA0420DD10824A343CC891C4383
:100BC00004239C438B882343094C22400C8A144302
:100BD0004A8A22438280058389684163038470BD09
:100BE000002C014000400140004401400048014009
:100BF000FFFC000070B5028C10239A430284048C21
:100C00008288038B1A4D2B400D782D062D0C1D4329
:100C100020239C438B891B051E0C4B8826431B05F8
:100C20001B0C144C3343A04202D0134EB04219D1D6
:100C3000124E32400E8AB604360C3243A04211D115
:100C40008024A343CC892405240C1C4340239C43CB
:100C50008B881B051B0C2343094C22404C8AA4049F
:100C6000240C22438280058389688163038470BDDC
:100C7000FF8C0000002C014000400140FFFB000001
:100C8000FFF7000030B5028C124B1A400284058C2D
:100C90008288838B104C23400C782406240C1C4340
:100CA0000E4B1D400B7B1B071B0C2B438D782D0718
:100CB0002D0C1D430A4B984205D10A4B13400A8A5A
:100CC0009205120C1A43828084838968016405842A
:100CD00030BD0000FFEF0000FF8C0000FFDF0000D0
:100CE000002C0140FFBF000010B50288144B984251
:100CF00006D00124A407A04202D0124CA04203D186
:100D00007024A2434C8822430F4CA04203D00F4CC6
:100D100022400C89224302804A68C2620A88028506
:100D2000984208D00A4A904205D00A4A904202D01E
:100D3000094A904201D1897A01860121818210BD40
:100D4000002C01400004004000100040FFFC0000A7
:100D500000400140004401400048014070B5194E78
:100D6000304600F0B5F8194D17496A78885418488C
:100D700043698169286B814201D2401A01E05B1A04
:100D80001818114C01231B044034984201D3002051
:100D9000C0435200A05229630821304600F026F8D3
:100DA000002808D069780120C0434900605208211A
:100DB000304600F00FF86878401C8006800E68709E
:100DC00070BD000000380140D403002098000020CE
:100DD00000E000E0016270470029016802D00122B2
:100DE000114301E049084900016070470246D26999
:100DF00000200A4200D00120704710B50B041C0EE1
:100E000001238B40022C02D0032C02D002E0001DF3
:100E100000E008300168002A01D0194300E099433E
:100E2000016010BD30B50446006889B00D46400829
:100E3000400020606068032109038843A9680143DA
:100E4000616020681A49EA680840696811432A69A4
:100E5000024311432160A0680321090288436969A4
:100E60000143A1606846FFF75BFD1248844201D14F
:100E7000069805E01048844201D1079800E00298E6
:100E800021680904296800D54000FFF749F92A685C
:100E900052088A4200D8401C2168090404D5010781
:100EA000064A490F10400843A08109B030BD000038
:100EB000F3E9FFFF0038014000440040F0FF00006C
:100EC000002A426801D00A4300E08A43426070472A
:100ED000808CC005C00D70470146034888600348F8
:100EE000C8600846704700000AD7A33C249A843D96
:100EF0000146034888600348C86008467047000000
:100F00000AD7A33C249A843D002101607047FFB5B5
:100F100081B01C4617460E0007D0019D02E028460E
:100F2000B047ED192046641EF9D2019805B0F0BD16
:100F300002E008C8121F08C1002AFAD170477047A2
:100F4000002001E001C1121F002AFBD17047000000
:100F500010B5032310220B490B48FFF7D8FF0A48AE
:100F60000323102209493030FFF7D1FF0848002140
:100F7000016005480323082206496030FFF7C7FFD8
:100F800010BD0000D90E000808050020F10E000871
:100F900048010020090F0008F8B5154E452000064D
:100FA00037460025183FB06002F0A0FC0024A000E6
:100FB000395880190F4A01F0FCFD641C032CF6DB44
:100FC00001F0BAFAFF20F5306D1C8542ECDB4521BB
:100FD0000906B068FFF71BF9074D0024B060A000B8
:100FE0008019294601F0D2FD641C032CF7DBF8BD03
:100FF000C80400201F856B3F0000FA4370B592B013
:10100000202503206946069508770024CC7709201F
:1010100006A9C006FFF75BFB01214802FFF774FC3D
:1010200001210846FFF758FC2948069029480790F7
:101030000220099080200B9040000C9008948000C2
:101040000E950D900A94C000234D0F9006A91094A0
:101050002846FFF79FFA1E4E0221403E3046FFF71A
:101060003CFA01213046FFF72EFA6846FFF76FFA87
:1010700001206946009408710420059002940494AC
:101080003046FFF749FA0121072249043046FFF7AD
:101090000CFA072220213046FFF707FA0120FFF75C
:1010A0005FFA3046FFF721FA01213046FFF702FAD6
:1010B0003046FFF747FA01212846FFF75FFA074855
:1010C0000088FFF73EF90349486012B070BD000088
:1010D000402401400C02002008000240BAF7FF1F24
:1010E00010B50B49002803D0012808D0002010BDFE
:1010F0000888FFF726F90749FFF791F810BD4888DF
:10110000FFF71FF9014602484068FFF7C5F810BD18
:101110000C02002067661E3BF0B58400304887B0A3
:1011200005597F2168004008C9050290FFF773F850
:1011300006462946FFF773F82949303909680191B5
:10114000FFF76DF8059029460298FFF768F82449E3
:10115000203909680091FFF762F8074620480830F7
:1011600001592846FFF753F81D49049028390968AA
:10117000FFF755F83146FFF752F81A49096803910D
:10118000FFF74DF80599FEF7F1FF154906461039AE
:101190000851083904980968FFF741F80299FFF7E8
:1011A0003EF80399FFF73BF83946FEF7DFFF0C499D
:1011B0000839085101463046FEF7D8FF084E103670
:1011C000305130460838055100990198FEF7CEFF9E
:1011D0000146A01901F0DAFC305907B0F0BD00005B
:1011E00080010020B4010020F8B505460C464800F7
:1011F00000D1294C01210026C9078D4203D94C405A
:101200004D408126F605002C09DC204648402C463E
:101210000546012189073046FEF7A8FF064621460C
:101220002846FFF7B9F810D821462846FEF7EFFF09
:10123000074621462846FEF799FF04467F213D4692
:10124000C9053046FEF792FF064621462846FFF7BD
:1012500023F804461149FEF7E2FF1149FEF786FF25
:101260002146FEF7DCFF0F49FEF780FF2146FEF71F
:10127000D6FF04460C493046FEF7D1FF2146FEF763
:1012800075FF0A49884202DD0949FEF7C0FF094996
:10129000FEF7C5FFF8BD0000567C0A2A4BC887BD83
:1012A0007EAE36BE42DA833FDB0F493FDB0F49405B
:1012B000DB0FC940E12E654270B5002506462C467D
:1012C000A00030580146FEF7AAFF2946FEF74EFF60
:1012D000641CE4B20546032CF2D3FFF7D3FA0146AF
:1012E0007F20C005FEF7D8FF70BD0000F8B51D4D8A
:1012F0000C216E68074632464A431B49184853186A
:101300002A6894001959002F02D0491C195102E093
:10131000491E16481951002E06D1002A01D0012A73
:1013200002D10F49FEF77BFF0021C943FEF7F2FF10
:10133000AE683159FEF71AFF002800DD30512968E8
:10134000002902D1002800DD706068680C2250433B
:10135000054A890080184058002800DA4042F8BD4C
:10136000CDCCCC3D98010020BC050020CDCCCCBD1F
:1013700030B5002207239C1A6418203C855CE47F6A
:10138000A54201D0002030BD521C072AF3DB01200A
:1013900030BD0000F0B5CD48CC4900694B78CC4D4C
:1013A000002487B0002862D00A46012866D00028B1
:1013B00001DA02F0CFF9C548806900287ED0C44820
:1013C00081784278080210434205A878520DC1087E
:1013D000E878430119434B05810928795B0D8000AA
:1013E00001436879860231434905490D009141085E
:1013F000A879C60131430609E879490507013E434A
:101400007605760D0196C609287A490D40000643F7
:10141000687A47023E437605760D02968608A87ADA
:1014200087013E437605760D0396EE7A4009F60075
:1014300030430490A8894005400D0590A348C06939
:10144000002873D0012870D018E10E5C0F2E07D051
:10145000401C8006800E1070D06C401CD06409E0E7
:10146000907001201061906C401C9064A3E7984933
:10147000964AC03910788342E7D19CE791788B4235
:1014800001D9581A02E04020401AC018182892DBEF
:1014900000230E4619360846B4461AE0C217920ECB
:1014A000121892099201861A894AC03AB21817781E
:1014B000421AAF54864F7600803F00E0F0E0F61904
:1014C00036880127BF02BE4202DD002A00DD01236B
:1014D000401C6045E2DB002B1CD17C4E0127B7612C
:1014E000E87D40070ED5306C002802D101F024F8C9
:1014F000306401F021F8326C821A7648824203D9B6
:10150000B76201E03464B462E87D000701D5776218
:1015100000E074626D48297E416141780170046188
:10152000016A491C016246E700E012E067480126B3
:1015300046608460FF27009D5137BD42C56B01DACC
:101540006D1CC563822D2EDD056D1E2D2ADDC66145
:101550008660614812181D180E181046FEF7E6FE48
:101560005E4F38602846FEF7E1FE78603046FEF7B1
:10157000DDFE0025B860AE00B8595949FEF74FFEB0
:101580006D1CB851032DF6DB0098AD38FEF7CEFE8A
:101590005449FEF744FE7F21C905F860884203DD07
:1015A000F96006E0C46369E00121C907884200D9F7
:1015B000FC604D4D4D4EE878002829D0287A00284F
:1015C000E87904D0002804D14949386803E00028AC
:1015D0000CD03146386802F03BF838603146786804
:1015E00002F036F878604249B86807E0404E386843
:1015F000314602F02DF838603146B86802F028F81C
:10160000B86035490198494288420EDD01200DE05D
:101610003146386802F01CF838603146786802F0CC
:1016200017F878603349B868E8E700202870029816
:10163000884201DD012000E00020E8700398884224
:1016400001DD012000E0002028720498884201DDBD
:10165000012000E00020E8710598884201DD0120AA
:1016600000E00020A87000F067FF18494864086A8D
:10167000092803DD0120C8600A20086200F05CFF31
:10168000124DA96B411A1348814205D9686B6C63EE
:10169000286500F051FFA863686BAC61401C68636B
:1016A00000F04AFF09494A6C821A0A48824202D96C
:1016B0000120C86201E02046CC628A6A10434A6A6F
:1016C000104300D00120486007B0F0BD9800002012
:1016D0009404002040420F001FFCFFFFC4030020C1
:1016E00022F19F3AFFF01F3AF4020020CDCC4C3F8C
:1016F000CDCC0C3F9A99193F00B502F081F800BD9E
:10170000F0B57F208BB0C0050490F948807B00289D
:1017100002D13F20000604900025F64F2C46F648E3
:10172000AE008059F54942005208B8518A4201DCA6
:10173000BC510FE00122D207904204D87F22D2058B
:101740000023009203E0EE4A0023EE49009201F0EC
:10175000F5FCB8516D1C032DE1DB01F091FEE54D68
:1017600004982968FEF75BFDE74E3146FEF757FD0A
:10177000E64F3946FEF753FD019069680498FEF77D
:101780004EFD3146FEF74BFD3946FEF748FD02900F
:10179000A9680498FEF743FDDD49FEF740FD394690
:1017A000FEF73DFD0390D248DA4EC0780C3D00288C
:1017B00003D0D9480068002834D0D8480199016086
:1017C00002994160039900278160D248BE00815987
:1017D000D2488059FEF71BFD7F1CA851032FF4DB74
:1017E00001F064FF002001F0F1FC012001F0EEFCAB
:1017F000022001F0EBFCBE48C94B0278C948CA4937
:101800000127CA4E002A7DD0BB4AD568C84A9542F6
:1018100002DD0A68002A76D01A68012AFBD0076028
:101820000F604FE10021B34802F0FAF8C14F03996D
:101830007868FEF7F4FC049001213868C907484035
:101840000399FEF7ECFC0590B86803990746FEF78C
:10185000E6FC0690B8480990B8480890B84800904F
:10186000A348B849027AC079002A7DD0002814D054
:1018700003C94700490049087F0838460791FEF729
:101880008BFD00D9079F08993846FEF77BFD16D8D7
:1018900038460899FEF700FD13E00120C007874293
:1018A00037D8A9480168A94801600020FFF734FC37
:1018B0000499FEF75BFC3168FEF7A9FC4DE07F2040
:1018C000C00508908B480099006847007F0838469B
:1018D000FEF758FD05D838460099FEF7DDFC0746AF
:1018E00001E07F27FF0508990998FEF798FC009012
:1018F00097483946FEF793FC0099FEF737FC0746F8
:101900008C4801E0D3E0DAE081680120C007814221
:1019100002D931680198CFE78B4801688B48016094
:1019200031680198FEF773FC3946FEF778FC0090A9
:101930007F203946C005FEF76AFC07460020FFF706
:10194000EBFB0499FEF712FC3168FEF760FC3946A8
:10195000FEF765FC0099FEF709FC286071680298A3
:10196000FEF755FC686000E001E0B1689AE00028ED
:101970007ED07F200027C0050999FEF748FC0A9019
:10198000704903C940004D006D08400806462946CD
:10199000FEF702FD00D8354628460899FEF7F2FC0E
:1019A00004D828460899FEF777FC01E07F20C0059F
:1019B00007905048BD0040590099460076083046CF
:1019C000FEF7E0FC05D830460099FEF765FC0646B8
:1019D00001E07F26F60507990998FEF720FC07909D
:1019E00031460A98FEF71BFC0799FEF7BFFB064637
:1019F000504881680120C007814206D945484159B5
:101A000001A84059FEF703FC24E04F4841594F48D4
:101A100041514048415901A84059FEF7F8FB314671
:101A2000FEF7FDFB07907F203146C005FEF7EFFB78
:101A300006463846FFF770FB04A94959FEF796FBA6
:101A400034494959FEF7E3FB3146FEF7E8FB0799B5
:101A5000FEF78CFB27497F1C0C394851012F8FDD85
:101A60002C4881680698FEF7D2FB22490C3900E029
:101A700001E08860B4E600273348BE00815933484E
:101A800081513846FFF748FB04A98959FEF76EFBE0
:101A900020498959FEF7BBFB7F1CA851012FEBDDC4
:101AA0001C4881680698FEF7B2FBA86098E60460BF
:101AB00028480068012800D11C60F46154E0264ADF
:101AC00004601760F761006800284DD0380050D0DE
:101AD00022492846FEF7A3FB2149FEF747FBB061E8
:101AE0001348854255DD1F480168002950D050E059
:101AF000F402002084020020C40300200AD7233C03
:101B0000000080BF0AD723BC0000574435FA8E3C42
:101B10000000FA43BC040020240100202806002015
:101B20005C0000206C0000207000002000000020FD
:101B3000CDCCCC3D180100209A99993E00005C4222
:101B40003333733FEC040020E004002080010020C8
:101B50003333333FA40000203C00002077BE7F3F9A
:101B60006F12833A68000020D548B46104600C60AD
:101B70000FE0D4498D4203DAD148B461046008E033
:101B80002846FEF744FBD049FEF749FBB061CC483C
:101B90000760CE480079002819D0CD49B461CD4BFB
:101BA0000868984211D2CC4A90420EDA48689842AE
:101BB0000BD2904209DA8868984206D2904204DA41
:101BC000C868002801DD904201DBC4480760C448B2
:101BD0000068002803D1C348B169814223DA7068E4
:101BE000002807D000F0A8FC7168401ABE4988425E
:101BF00000D974600025E8B2002101F0F9FC6D1CE9
:101C0000032DF8DDB94D00212A46B94800F0D1FF77
:101C1000B7482A460021001D00F0CBFFB4613760B1
:101C200034620BB0F0BD0020306000F085FC7060C5
:101C3000B0480068002802D0AF48C068B061AF4823
:101C40000024006801283FD1AD48AF4D0168AD4880
:101C5000814205DAFEF7DBFA2946FEF7E0FA044690
:101C6000AA480168AA48814205DAFEF7D0FA294657
:101C7000FEF7D5FA04467F20C005844201DD044604
:101C800001E0002C07DDA3492046FEF7C8FA716980
:101C9000FEF76CFA03E093497069FEF7B8FA3F214A
:101CA00009067061884201DD716105E00121C90703
:101CB000884201D90020706120467169FEF756FA0A
:101CC000B169FEF7A8FAB0619348944F0068089094
:101CD000002804D10121B868C9074840B8603868B5
:101CE000009001468248083880690646FEF78FFA60
:101CF00009907D682946FEF78AFABC682146FEF7FE
:101D000035FA079030460099FEF730FA0646294624
:101D1000FEF77DFA2146FEF77AFA059029460998E2
:101D2000FEF724FA2146FEF772FA0690304629465D
:101D3000FEF71CFA2146FEF719FA049008980028CD
:101D400003D10120C0074440BC600020401C032890
:101D5000FCDD0020634F044604AE0090A5007059DE
:101D60000099FEF719FB01D270590090705939465D
:101D7000FEF708FB00D27759641C042CEEDB7F21B0
:101D8000C9050098FEF743FA3F252D06A84200DD5D
:101D90002846574C083CA168FEF7FEFA04D2604979
:101DA000A068FEF7E3F903E05E49A068FEF72FFAAA
:101DB0004C4FA060A84201DDA56003E05A4988426B
:101DC00000D9A1604A48012108388068C9078842C3
:101DD00000D956485649FEF722FA00280DDD39464B
:101DE000FEF7C4F907460024A50070593946FEF7EE
:101DF0000EFA641C7051042CF6DB3148006801288F
:101E00001ED100252C46A700F0592946FEF7BAFA44
:101E100000D2F559641C042CF5DB4648854201D9F3
:101E2000054603E00120C007854209D90024A70028
:101E3000F0592946FEF7EBF9641CF051042CF6DB4F
:101E40002B49002008391F4F05467F1E0862AC0051
:101E500031590120C007814201D9002003E07F20D1
:101E6000C005814200DD305133483159FEF7D7F9C2
:101E70003946FEF77BF9305101F07DF90146E8B2B1
:101E800001F0B6FB30590121C907884202D9002070
:101E9000305104E07F21C905884200DD31513159BC
:101EA000134C083C206AFEF761F96D1C2062032D7B
:101EB000CDDD0121C943206AFEF72CFA2062B0E68D
:101EC00068000020CDCC4C3D9932873FF4020020C1
:101ED000C4030020A4707DBFA4707D3F3C0000209F
:101EE0009C0000206F12833A40420F00EC51383FB3
:101EF000080000202C010020F804002060000020D1
:101F000024000020CDCC2C400000404028000020C0
:101F10003333534017B7D138640000201C0600202B
:101F20000AD7A33B0AD7233CCDCCCCBD17B7D1B839
:101F3000CDCCCC3DCDCC4CBE3333733F10B500205F
:101F4000FFF7D4F910BD08B5C100081A0090411E72
:101F5000009101D30846FAE708BD000006460024B8
:101F6000E0B2002101F044FB641C032CF8DD0B4DB2
:101F7000AF0000240CE0FF2000F0FEFD2846FFF734
:101F8000E2FFFF2000F0EEFD2846FFF7DCFF641CB7
:101F9000B442F0DB3846FFF7D6FFEAE7400D030016
:101FA00010B50349FEF7E2F800F004F810BD000098
:101FB000DB0FC93F70B50446134E144D03E03146A4
:101FC000FEF7D4F80446AC42F9D8114DAC4204DD1A
:101FD0003146FEF71CF90446F8E70120C0070D4919
:101FE0000D4D8442204605D9FEF719F92946FEF722
:101FF000BDF804E0FEF713F92946FEF70CF9214677
:10200000FEF70DF970BD0000DB0FC940DB0F49C0C2
:10201000DB0F49407B81CF3E83F9A23FFEB500270D
:102020003D460024681CFEF781F901900E49A80086
:102030000E58601CFEF77AF90090A10071580198C3
:10204000FEF7EDF80099FEF7EAF80849FEF7E7F821
:102050003946FEF78BF8641C0746032CE9DB6D1C40
:10206000032DDEDBFEBD0000000200208D976E3FD9
:1020700010B5FFF7D3FF0149086010BD74000020C0
:10208000F8B50020012400F0BBF8214DA8423ED154
:10209000FF2000F0B5F8A84239D12046022500F013
:1020A000B7F81C4948600968FEF76CF911D10026A1
:1020B0000024B70028466D1C00F0AAF81649A200BB
:1020C000C959641C8850032CF4DB761C032EEFDB0B
:1020D00000E00B2528466D1C00F09AF80F4C20609C
:1020E00028466D1C00F094F86060284600F090F8D7
:1020F000A060362000F08CF8FEF72AF90849086045
:10210000372000F085F8FEF723F906490860F8BD8E
:102110000100AA127400002000020020C804002060
:102120006000002064000020F8B500F075F800F0B1
:1021300055F800200124234901F040FD22492046A2
:102140000225096800F06CF800260024B7001F483B
:10215000A100C059415828466D1C00F061F8641C6C
:10216000032CF4DB761C032EEFDB194C28466D1C88
:10217000216800F055F86E1C2846616800F050F8A0
:102180003046A16800F04CF812487F240068E4054E
:10219000002801D0214600E00021362000F040F860
:1021A0000D480068002801D0214600E000213720BA
:1021B00000F036F80349FF2001F000FD00F01CF8A4
:1021C000F8BD00000100AA127400002000020020E7
:1021D000C8040020600000206400002010B50548FD
:1021E000FEF7F6F9042803D0FEF722FA012010BD0D
:1021F000002010BD007C000810B5FEF719FA10BDD4
:10220000024980004018006870470000007C000808
:1022100000B5FFF7F5FF00BD10B5FEF737FA10BDAA
:1022200010B501F0CBFC10BD30B53F4C2178814298
:1022300077D006216218203AD27F6254491E0129C4
:10224000F8DA207039493848FFF792F87F250028DE
:1022500002D06570032030BD34493348C91DFFF7F3
:1022600087F8002802D06570042030BD2F492E4821
:102270000E31FFF77DF8002802D06570012030BDD7
:102280002A4929481531FFF773F8002802D06570F4
:10229000022030BD25492448C91FFFF769F80028EE
:1022A00002D06570092030BD20491F480E39FFF764
:1022B0005FF8002802D065700A2030BD1B491A481B
:1022C0001539FFF755F8002802D065700B2030BD96
:1022D000164915481C31FFF74BF8002802D06570ED
:1022E000052030BD114910482331FFF741F800287F
:1022F00002D06570062030BD0C490B482A31FFF72B
:1023000037F8002802D06570072030BD074906481D
:102310003131FFF72DF8002803D06570082030BD5B
:10232000FFE70020FBE7000090000020F13B0008E1
:10233000F8B500F07FF8040064D00125354F012C7A
:102340001ED13868002832D033480560002038603C
:10235000FFF7EAFEFFF794FE002002460C26034634
:1023600073432E4E00219B198E00491C9A5103295C
:10237000FADB401C0328F1DB00F0DEF82849086096
:102380000221284E0B2C17D00A2C1CD02648042CD6
:1023900021D0032C23D0072C00DB3D60052C23D05B
:1023A000062C24D0072C2ED0082C2FD022E000F0B1
:1023B000DDF8FEF7F1FDCBE71C4A05E01060081AD6
:1023C00030603D60E9E71A4A1068002801D000201B
:1023D000F4E70120F2E705710F4805600AE00E49B5
:1023E0000D600021017105E000F0D4FE01E000F075
:1023F000C3FE30603868002804D03068002801D15E
:1024000005480560F8BD00F047FBF2E7FFF796FDD1
:10241000EFE700007C0000203C000020BC0500200D
:102420005800002040000020F4020020640000203A
:102430006000002070B53748374C0068002864D031
:10244000364B37481A685100490881420BDA9D68BB
:102450006D006D08854206DA5D686D006D08854285
:1024600001DA00202FE02F4DAA4202D89E68AE422A
:1024700006D95E6876007608864201DA012022E0FD
:10248000294EB24202DC9A68B24206DD5A68520016
:102490005208824201DA022015E05A68AA4208D99D
:1024A000814206DA9D686D006D08854201DA0320DD
:1024B00009E0B24208DD814206DA9968490049081C
:1024C000814201DA0420206000F036F806CC083C96
:1024D000914200D0E060E268801A144A90420FD91D
:1024E000002904D1124A904201D90C2005E0114A7A
:1024F000904204D97F2903D0FF20A06000E0A160B2
:102500006160A068FFF790FE70BD7F20A0606060F2
:10251000002070BD0000002080000020C4030020C7
:10252000CDCC4C3E333333BF3333333FA086010031
:1025300060AE0A0020A1070000B501F025FB00BD38
:102540001CB5232001214004FEF7C6F901216A468B
:10255000117100209071D071032050710091694673
:102560000148FEF7B4F81CBD00140048F0B591B066
:10257000FFF7E2FF0F9005460B900A9000208100C4
:10258000574B0CAA5B58401C53500328F7DB8CE0D8
:102590000A980A95281A099001D10120099006226B
:1025A0006946432000F09EF9009801990002401806
:1025B00000B2FDF7BBFE0790029803990002401895
:1025C00000B2FDF7B3FE069004980599000240188A
:1025D00000B2FDF7ABFE434E0890307800F06EFA83
:1025E00020464149FDF79CFD4048814201D9012127
:1025F00000E000213068C207D20F914201D0401C98
:102600003060384801780907090F00260160B400DE
:102610000CAF06A839590059FDF7BEFE04D238594F
:102620003349FDF7A3FD385106A839590059FDF784
:10263000A9FE04D238592E49FDF7E9FD3851E019B9
:102640002C4900F0A3FA38592B4940004008FDF707
:102650008DFD014606AF385940004008FDF79CFE4D
:1026600006D2FFF769FF0B901E48012101600BE0C5
:102670000998FDF766FE214900F0D8FA024618488D
:102680003959201800F095FA761C032EBFDB7D2403
:10269000E400FFF751FF401BA04203D20A20FFF7DE
:1026A00052FCF6E7FFF748FF05460B982C1A144832
:1026B000844205D20F981349281A884200D267E74E
:1026C0000B98291A0E48814207D20020044A01467D
:1026D0008300401CD1500328FADB11B0F0BD00008C
:1026E000D40400200001002024F40000127A00002D
:1026F000CDCCCC3D000048440000C8420024F44842
:1027000080841E00C0E1E40010B58AB00220694652
:10271000087101208871C871032040020924E40671
:1027200000902046FDF7D3FF042209212046FEF742
:1027300006F804220A212046FEF701F80121480587
:10274000FEF7D6F801210846FEF7DEF801218805DC
:10275000FEF78EF90121C805FEF78AF91020FEF771
:102760007BF90B48029000200F2104910390AB21CC
:10277000084C059007900691089002A92046FEF7A4
:1027800011F801212046FDF7F1FF0AB010BD00004D
:102790001808700000540040F8B50F461646012195
:1027A00000F03AF80920800201230090F2B25B06A3
:1027B000D0211248FEF72EF8114D0020287018E0A5
:1027C000002408E0641C600B05D00E490868401C1A
:1027D00008600020F8BD04210848FDF7DBFF002851
:1027E000F0D00648FEF710F829788A00B850491C46
:1027F00029702878B042E3DB0120F8BD0054004086
:10280000240200201402002008B501226946FFF7C7
:10281000C3FF009808BD0000F3B581B00F46002447
:102820001A4D1B4E02E0641C600B22D10121C9032A
:102830003046FDF7AFFF0128F5D00120400300909E
:10284000FAB20023D0213046FDF7E4FF02E0641C19
:10285000600B0ED102213046FDF79CFF0028F6D018
:102860000198C1B23046FDF7D2FF07E0641C600B4F
:1028700004D02868401C28600020FEBD012130469D
:10288000FDF788FF0028F1D00120FEBD14020020D2
:102890000054004070B50D4600240221FFF7BCFF34
:1028A000E9B20C4D2846FDF7B2FF07E0641C600B4F
:1028B00004D009490868401C086070BD40212846C2
:1028C000FDF768FF0028F1D001212846FDF758FFE9
:1028D00070BD0000005400401402002010B5FFF746
:1028E00013FF10BD10B5FFF757FF10BD10B5FFF770
:1028F0008BFF10BD10B5FFF7CDFF10BDF0B54C4CF0
:102900004C4D87B021682868FDF781FC286061681C
:102910006868FDF77CFC6860A168A868FDF777FC33
:1029200000240A27FF43A860A600A8593946FDF7EE
:10293000F1FC641CA851032CF6DB3F48002400681E
:1029400004AF00903D48A60080590099FDF767FC50
:10295000641CB851032CF5DB394E049834682146C9
:10296000FDF75DFCB168FDF756FC019001990498F4
:10297000FDF755FC2146FDF7F9FB0746019905983F
:10298000FDF74DFC7168FDF7F1FB04462146059803
:10299000FDF745FC0199FDF73EFCB0602146069825
:1029A000FDF73DFC3946FDF736FC3060069A0146DE
:1029B0001046FDF734FC2146FDF7D8FB70601D483A
:1029C000FEF77AFC1F49204A4118914222D27F2209
:1029D000D205014600241046FDF75EFC0090A700DA
:1029E000E959FDF71CFC641CE851032C01DA00983E
:1029F000F5E711483F210906006800F029F907466C
:102A00000024A000295880193A4600F0D2F8641C2E
:102A1000032CF6DBB1683068FEF7E6FB0B4C206058
:102A2000B1687068FEF7E0FB606007B0F0BD0000C1
:102A3000C8040020B004002054000020BC04002082
:102A400018010020CCCCCCC032337300EC04002041
:102A5000F8B500250D4F00F049FF0024A6000A211B
:102A6000B859C943FDF756FC01460948094A3018D0
:102A700000F09FF8641C032CF0DB7D20C000FFF702
:102A800062FA6D1C642DE6DBF8BD0000B004002086
:102A9000180100209A99593F10B50120FEF726FC35
:102AA00010BD0EB500226B461A805A8001911A8122
:102AB0009A726946FEF718F90EBD000070B5064619
:102AC000FFF73AFD194C21692061451A3046FDF7A0
:102AD00038FC1749FDF7A3FB06460121204689076C
:102AE0000C3000F053F82846FDF72BFC0546304625
:102AF0006168FDF78CFB2946FDF791FB0D49FDF759
:102B00008EFBE168FDF732FB0B49E060884205DD92
:102B1000FF2000F031F87F20C00503E0FF2000F027
:102B200021F800206060002070BD0000EC00002053
:102B30008988883D6F12833A48E1FA3E70B50D46A8
:102B40000446FFF7F9FC2146FDF7EAFA6C43200939
:102B5000814203D90F2000F00FF870BD0F2000F064
:102B600001F870BD10B5C00703D001210148FDF781
:102B7000F6FD10BD0014004810B5C00703D00121B8
:102B80000148FDF7EEFD10BD0014004870B5044685
:102B90000120C0070D4645400E462068FDF7FCFBAE
:102BA00000D2266028462168FDF7F6FB00D225609A
:102BB00070BD70B505460C467F2016461146C0050F
:102BC000FDF725FB2146FDF72AFB04463146286820
:102BD000FDF725FB2146FDF7C9FA286070BD00000E
:102BE000F3B5104E104F8C0083B031597869FDF762
:102BF00016FB019030460C38055938692946FDF717
:102C00000EFB0090B9690398FDF709FB0099FDF7E9
:102C1000ADFA0199FDF7FBFA314635510C390851EF
:102C200005B0F0BD580600209801002010B5FDF752
:102C300033FB7F24E4052146FDF7EDFAA04201DDD8
:102C4000204610BD0121C9078842FAD9002010BDD5
:102C500010B5FDF7E4FA7F24E4052146FDF7DBFA21
:102C6000A04201DD204610BD0121C9078842FAD9E2
:102C7000002010BDF8B5164A09018C1805462768D2
:102C8000A1686068FDF772FA0090E168FDF76EFADE
:102C900001467F20C005FDF7FFFA0099FDF7BFFA56
:102CA000064639462846FDF7B2FA3146FDF7B7FA2F
:102CB0003946FDF75BFA05467F203146C005FDF732
:102CC000A6FA0099FDF7ABFA256060602846F8BDCA
:102CD00008050020F8B5164A09018C180546276832
:102CE000A1686068FDF742FA0090E168FDF73EFADE
:102CF00001467F20C005FDF7CFFA0099FDF78FFA56
:102D0000064639462846FDF782FA3146FDF787FA2E
:102D10003946FDF72BFA05467F203146C005FDF701
:102D200076FA0099FDF77BFA256060602846F8BDC9
:102D3000380500200EB57D20C000FFF704F9FEF72E
:102D4000DBFCFFF7FDFBFF20FFF716FF00F046FE60
:102D500000F004FFE148FFF7F6F8FFF7BFFD00F0D1
:102D6000CDFB0021084600F043FC0021012000F0CB
:102D70003FFC0021032000F03BFC0021022000F07A
:102D800037FC00F087FD00F075FD002836D0FEF717
:102D900035F9D34901208873FFF76AF9FFF770F915
:102DA00000F0D6FCCF4E00240020FEF799F9B16860
:102DB000FDF735FA05460120FEF792F90146CA4FA4
:102DC000C8483A460830FFF7F4FE3A462946C54857
:102DD000FFF7EFFEC548641C8442E5DBC44D306854
:102DE000062400902046FDF7A1FA07460146009808
:102DF000FDF752FAA84203DD776104E0042037E0D2
:102E0000641E002CEEDC71690098FDF745FAB949A3
:102E1000884201DA02202BE0FFF7A8FB00F044FC17
:102E2000FFF716FEB4480068002801D007201FE015
:102E3000FFF782FB7063FFF77FFBAA4C0546606BD0
:102E4000281AFDF77EFA2063002802DC7F20C005E7
:102E50002063AA49FDF7E3F9A9492063884201DD0F
:102E6000062005E0A44865630068142802DD0820F8
:102E7000FFF774F800F03AFDFEF742FCFFF73EFD65
:102E80000020FEF72DF9974CA168FDF7C8F906461A
:102E90000120FEF725F90146934F20463A460830B7
:102EA000FFF787FE97483A46016820460C30FFF747
:102EB00080FE95496069FDF7B2F90190934A01A837
:102EC0002168FFF776FE3A4631462046FFF771FE4D
:102ED0000121C9430198FDF71DFA06468C49206877
:102EE000FDF79DF93146FDF792F90090E4688948B5
:102EF000844256DD7B4F786A0646FDF717FA85490E
:102F0000FDF78DF92146FDF78AF90099FDF72EF9B5
:102F10007349B400703108510646F86A002808D099
:102F2000002030398200401C8E500C28FADB002033
:102F3000F8626B48784910300059FDF770F9684F16
:102F40000290403739593046FDF761F90299FDF793
:102F50000DF939463E51303908510146FDF75FF908
:102F60003E4601466036A0196C4AFFF722FE5D48D6
:102F70005C49406A401C48620C2812DB0020486211
:102F8000306800240290A700F0590299FDF7FAF981
:102F900004D2F05902905348611C8162641C0C2CCD
:102FA000F1DB504F3869002800D05A485C49FDF7E2
:102FB000DDF80646B86AFDF7B9F9564C2146FDF72B
:102FC0002EF9F968FDF72BF90099FDF7CFF8314696
:102FD000FDF7D8F903D353493868884201DA012054
:102FE00000E000203861B86AFDF7A0F92146FDF73E
:102FF00016F9F968FDF713F90099FDF7B7F878604D
:1030000049480068002801D0FFF792F93869002884
:1030100001D0082108E045480068002806D044484F
:103020000068002804D00F2142481EE00C211BE05C
:103030002B488079002807D00026B869002817D0CF
:10304000386A002802D004E00126F6E7FFF774FA98
:103050003862FFF771FA396A411A3648814202D95B
:103060000020B861386208211C48FFF767FD2BE09B
:10307000F86900281FD0FFF75FFA0446386A002875
:1030800009D13C62002E03D0FF20FFF76BFD02E068
:10309000FF20FFF771FD386A211A2648814201D8C6
:1030A000386A04E0F869401EF8610020386222495D
:1030B000201A884208D9002E03D0FF20FFF75CFDBC
:1030C00002E0FF20FFF74EFDFEF764F97D24E400E7
:1030D000FFF732FA401BA042FAD3ACE6A08601000B
:1030E000F402002024000020492E7F3F88130000B6
:1030F000CDCC6C403333534014020020BD378635AD
:103100000AD7A33C200000206666864029EA7F3F5C
:103110000000A03FCDCCCC3D42F27C3F67B17F3F69
:1031200000006040CDCC2C4000000020A00000201A
:103130009C00002020A10700E0930400FFB581B0AF
:1031400007460E4610460A9DFDF761F804462846DC
:103150000499FDF75CF8054631463846FDF757F807
:103160002946FDF75CF82146FDF796F80499FCF72F
:10317000FDFF05B0F0BD704705490868022804D07E
:1031800001DA02200860401C70470020FAE70000C6
:10319000980100200C494868002804D0012807D075
:1031A00002280AD10BE0084844308860012003E07F
:1031B00005485030886002204860401C7047024833
:1031C000383088600020F7E798010020F0B5064607
:1031D0009E489F49C2789F489F4F0068B4008FB0B7
:1031E000002A03D0994A127A002A11D0002803D06D
:1031F0003859FDF714F83851022E1ADA9649183169
:103200000859C207401CD20F0851002A07D010E00D
:103210000028EDD1914800680028E9D0ECE78E48FD
:1032200031464830005900F0DBFB01468A480C303B
:1032300001518B480025015987483C300059FDF762
:10324000A1F804D187480059002800DD01258448F1
:1032500001210059C90748407F493C310959FDF710
:1032600091F806D17F4801590120C007814200D959
:103270000125022E0BDA78480C3001593C300059F8
:10328000FCF7C5FF400078494008884227DC002D44
:1032900025D171480221543005592846FDF73AF8E6
:1032A0006D4960310959FCF761FF6E490959009178
:1032B000FCF75CFF6D49FCF7B2FF6D490959FCF75B
:1032C000AEFF6C490968FCF7AAFF3959FCF74EFFBD
:1032D00038516148603005510C38009901516048FF
:1032E0000C3001595C482018FFF750FC604818303A
:1032F00007595C4839460059FCF791FF5C490C3985
:1033000009590091FCF78BFF534D7F2101903C350B
:10331000C9053846FCF77BFF0099FCF780FF56494A
:1033200009590391FCF77BFF0199FCF71FFF4A49FC
:103330000959FCF71BFF28514D480C3000590290E9
:10334000002801DC285972E040480AA9827807A8C1
:10335000002A06D0464A243A12590251444A183AE1
:1033600005E03D4A603A125902513B4A543A12591B
:103370000A5100597F22D2050090904208590190CD
:10338000014604AF104608DAFCF741FF0D903B48B8
:1033900001990059400040080BE0FCF738FF0D9000
:1033A00000990198FCF778FF014634480059400025
:1033B0004008FCF734FF0D99FCF7D8FE3851264839
:1033C000243001590398FCF722FF0299FCF727FFEC
:1033D00027494439C9690D91FCF721FF0E901E4819
:1033E000303001591830025901921046FCF70FFF96
:1033F0000299FCF714FF0099FCF711FF3959FCF70B
:103400000EFF0D99FCF70BFF0E99FCF700FF124918
:10341000019A30310A51104A039924321151314630
:10342000FFF7DEFB01462859FCF7A0FE28511049A2
:103430004439C968FCF7F3FE28510948015960195D
:10344000FFF7A4FB28590FB0F0BD0000F4020020E4
:1034500048E17A3F00000020E005002068000020DD
:103460002C3C000878020020CDCCCC3D7EAA2A3E20
:10347000DC01002054000020BC0400208402002055
:10348000F8B5144801681448FCF706FF134CE061D6
:103490001348016813480068FCF7FEFE7F25124EB2
:1034A000ED053346114A12490095FFF747FEE060EB
:1034B000B04201DDE66002E0A84200DAE5600D48B6
:1034C000C078002804D00C49E068FCF7A8FEE06052
:1034D000F8BD00005400002017B7513B98010020B0
:1034E0003800002024000020713DAA3F6666764027
:1034F00000002040F40200206666663FFEB502250B
:1035000069460D710320487100248C71CC71012132
:103510002846FDF7EDF9314F31483946FFF7C1FA3A
:1035200001210E023046FDF7E3F939462D4F3846AA
:10353000FFF7B7FA2C486021018001214180848186
:103540000682846010200924E40600906946204623
:10355000FDF7BDF8042211462046FDF7F0F8224998
:103560003846FDF709FB4020009069462046FDF7EC
:10357000AEF8012206212046FDF7E1F81A49184865
:10358000FDF7FAFA8020009069462046FDF79FF883
:10359000012207212046FDF7D2F813491048FDF714
:1035A00029FB124C694620460095FDF790F8012250
:1035B00011462046FDF7C3F80B490948FDF762FBA9
:1035C00001210748FDF7C2FA01210548FDF7C8FAB5
:1035D00001213846FDF7BAFAFEBD0000CF07000012
:1035E0000004004000200040640600200004004861
:1035F00010B50A46044612491046FCF710FEFCF7C7
:10360000A7FE002801DA002003E00E49884200DD11
:1036100008460D49002C08D0012C09D0022C0CD0F2
:10362000032C01D180B2486310BD80B2886310BD05
:10363000054980B24031086010BD80B20349F2E70D
:1036400000E0F944CF0700000004004000200040E3
:10365000F8B506467F20C0050C46814201DD0446D0
:1036600003E010498C4200D90C4621460746FCF77E
:10367000CEFD3146FCF7D3FD054631460846FCF742
:10368000CEFD3146FCF7CBFD2146FCF7C8FD2946AF
:10369000FCF76CFD009039466846FFF777FA009812
:1036A000F8BD0000000080BF70470000FEB5254D4A
:1036B000254C2F68A66839463046FCF7B0FD2349F3
:1036C00009680091FCF7ABFD6168FCF7A4FD394681
:1036D0000190FCF7A4FD0099FCF7A1FD3146FCF731
:1036E00045FD074668680290266801463046FCF7AB
:1036F00096FD0099FCF793FD3946FCF78CFDA06020
:103700000299FCF78CFD0099FCF789FD3146FCF726
:103710002DFDAD68064629460198FCF780FD00990D
:10372000FCF77DFD3146FCF776FD29462060FCF76D
:1037300076FD0099FCF773FD0199FCF717FD6060B9
:10374000FEBD0000BC040020E00500205400002065
:103750007047000030B589B0FEF7EEFE234988427D
:1037600041D302206946087100248C71CC7103207A
:10377000487108200925ED0600902846FCF7A7FFB0
:10378000012203212846FCF7DAFF01218803FDF717
:10379000BBF8174803900120400305900420154D05
:1037A000079004940694089403A92846FDF73AFB71
:1037B0000321012209042846FDF782FB01220E495C
:1037C0002846FDF71AFB01212846FDF705FB1B20C3
:1037D000694608724C7201258D7202A8FDF72AF81D
:1037E00006488560046109B030BD000080841E0079
:1037F000A086010000380140050105009800002066
:103800001B48016801221143016001688907FCD54A
:10381000416889088900416041680907890FFBD127
:103820000168012212069143016001688901FCD4FC
:1038300041683F231B049943416041687B23DB03BC
:103840009943416041680723DB04194341600168E3
:103850001143016001688901FCD5416802221143CE
:10386000416041680907890F0229FAD170470000B9
:103870000010024010B57520FFF738F8682807D00F
:10388000982805D0782803D0722801D0002010BDD8
:10389000012010BD10B580216B20FFF72BF81248D6
:1038A000FEF751FB01216B20FFF724F87520FFF78D
:1038B0001DF8682801D0012400E000246420FEF7F0
:1038C00042FB18211C20FFF715F8002C03D005211E
:1038D0001D20FFF70FF818211B20FFF70BF8002120
:1038E0001A20FFF707F810BD409C0000F0B593B018
:1038F0000E2269463B20FEF7F5FF00980199000271
:10390000401800B24042FCF711FD074602980399A7
:103910000002401800B22E4D4042FCF707FD06465B
:10392000049805990002401800B2FCF7FFFC01243E
:10393000E4076740A860C0C50898099900024018CC
:1039400000B2FCF7F3FC11900A980B9900024018A2
:1039500000B2FCF7EBFC10900C980D990002401897
:1039600000B2FCF7E3FC12901C3529681098FCF7B4
:103970004EFC109069681198FCF749FC1190A968F9
:103980001298FCF744FC1290119810996040109026
:1039900008466040119012982F466040002410AEF7
:1039A000183F1290A50070590A49FCF738FC0A49E3
:1039B000FCF735FC70512146FFF75CF97851214640
:1039C000FFF788F9641C7851032CEBDB13B0F0BDD2
:1039D000B004002000007A3D35FA8E3C70470000AC
:1039E00070B50C4AC9008C18054660680A49206009
:1039F000FCF715FC064609492846FCF710FC314641
:103A0000FCF7B4FB6060226801461046FCF7AEFB91
:103A100070BD00006805002007715D3FE23B8A3DF4
:103A2000F8B5474D044601682868FCF7ABFC04D1A3
:103A300061686868FCF7A6FC55D02068286060685B
:103A4000404E686031466068FCF7E9FB3E4F3946FE
:103A5000FCF7E5FB054631462068FCF7E0FB3946FC
:103A6000FCF7DDFB0646FEF7A5FA354C083420606E
:103A70002846FEF79FFA60602846FEF791FA054651
:103A80003046FEF78DFA2946FCF7C9FB0646A060D2
:103A900060680146FCF7C3FB054620680146FCF759
:103AA000BEFB2946FCF762FB2849054688420FDD2C
:103AB00031460846FCF7B3FB7F21C905FCF7ABFB99
:103AC00001462846FCF7E8FBFCF7DCFE054600E073
:103AD0001F4D20682946FCF7A2FB2060294660683C
:103AE000FCF79DFB6060164C1A4E0834A0680090ED
:103AF00070680099FCF793FBB76805466168384623
:103B0000FCF78DFB2946FCF782FB134D686030689B
:103B10000099FCF784FB064638462168FCF77FFBDA
:103B20003146FCF774FB7F24E405286021462846D3
:103B3000FFF72CF82146281DFFF728F8F8BD0000F4
:103B4000040100200000824235FA8E3C6F12833A55
:103B5000F4FD343F18010020E004002010B50848AF
:103B6000064941610749CA6903231202120A440443
:103B70002243CA6100218161036110BDFF117A00F7
:103B800000E000E004ED00E00A48436980690A496A
:103B90004A68904201D2121A01E01B1A9A18486032
:103BA00008681218D008C300D21A0A608A68101870
:103BB0008860704700E000E018020020064A10B557
:103BC00080008018FCF73CFD042804D0FCF730FD91
:103BD0000520FEF7C3F910BD007C00080C030004AB
:103BE0000003000C0100010001000C0200020002B1
:103BF000000C0100010003000C0200020003000C95
:103C00000300030003000C0400040004000C040083
:103C1000030004000C0400030003000C0400030074
:103C200002000C0400030001000000009A99D93F33
:103C30009A99D93F0000003F9A99D93F9A99D93F64
:103C40000000003F683C000800000020380200002F
:103C500054040008083D0008380200204008000015
:103C6000400F0008EDD2FFFF32012904810514CD79
:103C7000CCCC3D256666864043803F4930490C01E7
:103C800010A94CA90CE1033020C11AFF010158A072
:103C9000097B14524185EB4141A9DC0914E8011A62
:103CA0005A20486340405AA008013613D0012A2008
:103CB00084600D9ED8893F2173943E52215A3E1A4A
:103CC000C09829042F803F9A99993E04412DF628E7
:103CD0005C3E0458086666863F3333B3243EC03FDB
:103CE000A4703D043808CDCC0C3F7B146E042D66C7
:103CF00066663F601ADC043AE868011B2D01020386
:083D0000040435060708090060
:04000005080000C926
:00000001FF
