:020000040800F2
:10000000480A0020C9000008EF0000086707000840
:1000100000000000000000000000000000000000E0
:10002000000000000000000000000000F3000008D5
:100030000000000000000000F5000008E90A0008C8
:10004000F9000008F9000008F9000008F9000008AC
:10005000F9000008F9000008F9000008F90000089C
:1000600000000000F9000008F9000008F90000088D
:10007000F9000008F9000008F9000008F90000087C
:10008000F90000080000000000000000F90000086E
:1000900000000000F9000008F9000008F90000085D
:1000A00000000000F9000008000000005D0D0008DD
:1000B0000448854600F0BCF900F048F800480047C5
:1000C000BD2C0008480A00200C4880F308880C4822
:1000D0000168090E0B4A914205D10B480B4901609A
:1000E0000B480C4901600C4880470C480047FEE76C
:1000F000FEE7FEE7FEE7FEE7FEE70000480A002015
:10010000040000001F000000181002400100000061
:100110000000014000000000ED0A0008B1000008E6
:1001200030B50B46014600202022012409E00D468F
:10013000D5409D4205D31D469540491B2546954017
:1001400040191546521E002DF1DC30BD70B5054C2E
:10015000054D03E0206800198047241DAC42F9D109
:1001600070BD0000083C00080C3C0008F8B50246D1
:100170004A40D40F42004B0052085B089A4202D218
:100180000246084611464A0023D0C30D4A00DDB29C
:10019000120EAD1A202D35DA49020126490AF6055C
:1001A0008A19002C00D0524220214F1B1146B94021
:1001B0002A411018C20D9A4221D0002C17D0012DCF
:1001C00008DCDA05801AD20F8019D207DBB200F002
:1001D000F5F8F8BDDA05801A012340001B06C018A7
:1001E00080185A428018CA0F1043490007E0490896
:1001F000C2071143DA05801A80194008801800F000
:10020000D5F8F8BD61000122511A001BF7E7012261
:10021000D2075140AAE70122D2075040A6E7024682
:1002200070B54A40D30FDB0740002DD04A002AD0DA
:10023000010E140E000212020919400A520A841813
:10024000E50104465443000A120A2E045043A4193F
:100250004219200CC543AA18120C0125AD03521CEB
:10026000521912047F39240400D0521C104301D4C7
:100270004000491EC2B20C06C0092018401C4008AC
:10028000802A02D003E0002070BD40084000002911
:1002900000DA0020184370BD70B502464A40D50F01
:1002A00040004A00ED0740085208002814D0002AF8
:1002B00012D0C40DD30D41020120C0055202490ADB
:1002C000520AE41A091812187D34914201D3641CB1
:1002D00000E04900002C01DA002070BD00239142AB
:1002E00001D3891A0343400849000028F7D10029A7
:1002F0000AD0914202D10121C90705E0914201D201
:10030000012101E00121C943E005C018401900F0B6
:100310004DF870BD420005D04200120E52428A4292
:1003200001DB00207047C90508187047C217C10FCC
:10033000504010B54018CA079623002100F03EF83F
:1003400010BD10B500229623114600F037F810BDFD
:10035000C20F410040020123400ADB05D207090E0B
:10036000C0187F2901DA00207047962903DC962304
:10037000591AC84001E096398840002AF4D040421A
:10038000704700000122D207002800DB101A002964
:1003900000DB511A814270470122D207002800DB9E
:1003A000101A002900DB511A88427047002904DA2C
:1003B000401C490001D140084000704770B400243F
:1003C000050C05D11024000402D1002921D01124EC
:1003D000050E01D100020834050F01D10001241DD2
:1003E000850F01D18000A41C002801DB4000641CA3
:1003F000002908D020252E1B0D46F540A14000D035
:1004000001212943084301061B1B000ADB1D02D5FD
:10041000002070BC7047DB05181880180029F8DA36
:10042000401C4900F5D170BC4008400070470000F6
:10043000064C0125064E05E0E36807CC2B430C3C37
:1004400098471034B442F7D3FFF736FEE83B000874
:10045000083C000870B58C180578401C6B075B0FD2
:1004600001D10378401C2A1106D10278401C03E018
:1004700006780E70401C491C5B1EF9D12B0705D471
:100480000023521E0DD40B70491CFAE70378401C60
:10049000CB1A921C03E01D780D70491C5B1C521E88
:1004A000F9D5A142D8D3002070BD836A0B43836283
:1004B000426170470029816801D0012200E00222D8
:1004C0001143816070470029C16802D001221143A5
:1004D00001E049084900C1607047C26802239A439D
:1004E000C260C2680A43C26070478268002101236B
:1004F000DB071A4382600F231B038268491CD20F5B
:10050000D207994201D0002AF7D18168002901DB86
:10051000006C70470020704730B5C268084B8C688B
:100520001A400B680D792343CC686D032C43234399
:100530000C69496923430B431343C36030BD00007A
:1005400003D2FFFF816804221143816070470021BC
:10055000016001718160C16001614161704700000B
:100560000122054992050028886801D0104300E067
:10057000904388607047000000270140002901680F
:1005800002D00122114301E0014A1140016070478D
:10059000FEFF000030B503680C4A0C6A13408A68FD
:1005A0004D6922430C692C4322438C692243CC6958
:1005B00022434C6A22438C6A22431A430260CA686F
:1005C00042600A6882604968C16030BD0F80FFFFE9
:1005D000F0B50B2706463F04384600F067F80428BC
:1005E0000FD1084C206902252843206166612069EB
:1005F000402108432061384600F058F82169A9439A
:100600002161F0BD0020024008490420CA68D207D9
:1006100001D001207047CA68D20601D50220704778
:10062000C9684907FBD5032070470000002002403D
:100630000248016980221143016170470020024095
:10064000F8B5064600200B273F0400900D463846BB
:1006500000F02CF8042815D10B4C20690121084327
:1006600020613580384600F021F8042806D1B61CF8
:10067000290C00963180384600F018F821694908A5
:1006800049002161F8BD00000020024004480169D2
:10069000090603D5034941600349416070470000E2
:1006A0000020024023016745AB89EFCD00B503462A
:1006B000FFF7AAFF02E0FFF7A7FF5B1E012803D0A8
:1006C000002B00D1052000BD002BF4D1FAE7F0B5D6
:1006D0000022032501230C6893401C409C422AD130
:1006E0000C79012C01D0022C12D1876854002E46BF
:1006F000A640B74387604E79A6408468264386604B
:1007000084889C43848084888B7993401C438480B4
:10071000066853002C469C40A64306600E79076885
:100720009E403E430660C668A643C660CC799C40A6
:10073000C3681C43C460521C102ACBD3F0BD4B07C6
:10074000DB0E9A40C90810B589000818016A0F2409
:100750009C40A1430162016A1143016210BD018501
:10076000704781617047052001F0ECFB00290168AA
:1007700002D00122114301E049084900016070479D
:10078000012292030029416801D0114300E0914306
:10079000416070470246926900200A4200D0012061
:1007A0007047000010B502685208520002600268EB
:1007B000134B8C681A4024024B6814432343036094
:1007C0000F230A681B069A430261026801231A4339
:1007D000026000228260C2600B698A691A438260EB
:1007E00082680123DB031A438260CA6803681343EB
:1007F00003604268034B49691A401143416010BDD0
:10080000FFE0CF00FF7FFF07406AC0B27047816200
:100810007047000070B5049D44688905890D120475
:10082000034E11431943344029432143416070BDB5
:10083000009800FC30B5827801240178002A15D098
:100840008B080E4A9B009A1813688907C90EFF256A
:100850008D40AB434578AD072D0E8D401D4315608F
:100860000078C006C00E8440054804E0C806C00EEB
:10087000844003488030046030BD000000E400E0A4
:1008800000E100E070B5FF2500210446AD05C94335
:10089000FFF740FD06460F4960100C1A214630460E
:1008A000FFF7BDFC2146FFF7BAFC2946FFF7B3FC72
:1008B0002146FFF7B4FC044601463046FFF7AFFC83
:1008C0002146FFF7ACFC2946FFF7A5FC2146FFF7C0
:1008D000A6FC70BDDF59375F044A0029516901D079
:1008E000014300E081435161704700000010024065
:1008F000044A0029D16901D0014300E08143D1615C
:100900007047000000100240044A0029916901D09C
:10091000014300E0814391617047000000100240F4
:10092000F8B5464E0446716800200C22444D114033
:1009300005D0042903D0082903D00C2918D025603C
:1009400018E07168706803228902D2030F0F10400B
:10095000BF1C002809D0F06A0107090F2846491C6E
:10096000FFF7DEFB7843206004E036487843FAE77F
:10097000354921607168354F0906090F7B5C216894
:100980000A46DA40626073685B055B0FFB5CDA4025
:10099000A260336BDB0501D42D4B05E073685B046B
:1009A00001D4530800E09308E360336B5F06294BE2
:1009B00003D4284F1237276100E02361376BFF060D
:1009C00001D4656100E06161376BBF070ED0376B02
:1009D000BF07BF0F012F0BD0376BBF07BF0F022F11
:1009E00008D0376BFF43BF0706D006E0A26104E0E2
:1009F000A16102E0A36100E0A561376BBF03BF0FF7
:100A00000FD0326B9203920F012A0CD0316B890305
:100A1000890F022909D0316B8903890F032906D078
:100A200006E0E26104E0E16102E0E36100E0E5612B
:100A3000316B090600D404482062F8BD0010024062
:100A400000127A0000093D00006CDC022502002043
:100A5000809FD5000080000004490A6B10239A4350
:100A60000A630A6B02430A637047000000100240E9
:100A7000044A0029116801D0014300E0814311605C
:100A800070470000000001400CB50020009001906C
:100A90001349112008601348416841604168416072
:100AA00041687B22D2039143416041680522D20410
:100AB000114341600168012212061143016001687F
:100AC0008901FCD54168890889004160416802229A
:100AD0001143416041680907890F0229FAD10CBD11
:100AE00000200240001002407047000010B514487A
:100AF00001680122114301604168124A11404160BE
:100B00000168114A11400160016801229204914379
:100B1000016041683F22120491434160C16A0909A2
:100B20000901C162016BFF22543291430163416BA1
:100B300049084900416300218160FFF7A5FF10BD0E
:100B4000001002400CB8FF08FFFFF6FE00290188E4
:100B500002D00122114301E0490849000180704799
:100B600040300029818803D00122D203114301E0E3
:100B70004904490C8180704770B5028C52085200BC
:100B80000284048C8288038B7025AB439B080D88FC
:100B90009B001D4302239C438E894B882643104CA7
:100BA0003343A04208D00F4CA04205D00E4CA042C7
:100BB00002D00E4CA0420DD10824A343CC891C4383
:100BC00004239C438B882343094C22400C8A144302
:100BD0004A8A22438280058389684163038470BD09
:100BE000002C014000400140004401400048014009
:100BF000FFFC000070B5028C10239A430284048C21
:100C00008288038B1A4D2B400D782D062D0C1D4329
:100C100020239C438B891B051E0C4B8826431B05F8
:100C20001B0C144C3343A04202D0134EB04219D1D6
:100C3000124E32400E8AB604360C3243A04211D115
:100C40008024A343CC892405240C1C4340239C43CB
:100C50008B881B051B0C2343094C22404C8AA4049F
:100C6000240C22438280058389688163038470BDDC
:100C7000FF8C0000002C014000400140FFFB000001
:100C8000FFF7000030B5028C124B1A400284058C2D
:100C90008288838B104C23400C782406240C1C4340
:100CA0000E4B1D400B7B1B071B0C2B438D782D0718
:100CB0002D0C1D430A4B984205D10A4B13400A8A5A
:100CC0009205120C1A43828084838968016405842A
:100CD00030BD0000FFEF0000FF8C0000FFDF0000D0
:100CE000002C0140FFBF000010B50288144B984251
:100CF00006D00124A407A04202D0124CA04203D186
:100D00007024A2434C8822430F4CA04203D00F4CC6
:100D100022400C89224302804A68C2620A88028506
:100D2000984208D00A4A904205D00A4A904202D01E
:100D3000094A904201D1897A01860121818210BD40
:100D4000002C01400004004000100040FFFC0000A7
:100D500000400140004401400048014070B5194E78
:100D6000304600F0B5F8194D17496A78885418488C
:100D700043698169286B814201D2401A01E05B1A04
:100D80001818114C01231B044034984201D3002051
:100D9000C0435200A05229630821304600F026F8D3
:100DA000002808D069780120C0434900605208211A
:100DB000304600F00FF86878401C8006800E68709E
:100DC00070BD000000380140D403002098000020CE
:100DD00000E000E0016270470029016802D00122B2
:100DE000114301E049084900016070470246D26999
:100DF00000200A4200D00120704710B50B041C0EE1
:100E000001238B40022C02D0032C02D002E0001DF3
:100E100000E008300168002A01D0194300E099433E
:100E2000016010BD30B50446006889B00D46400829
:100E3000400020606068032109038843A9680143DA
:100E4000616020681A49EA680840696811432A69A4
:100E5000024311432160A0680321090288436969A4
:100E60000143A1606846FFF75BFD1248844201D14F
:100E7000069805E01048844201D1079800E00298E6
:100E800021680904296800D54000FFF749F92A685C
:100E900052088A4200D8401C2168090404D5010781
:100EA000064A490F10400843A08109B030BD000038
:100EB000F3E9FFFF0038014000440040F0FF00006C
:100EC000002A426801D00A4300E08A43426070472A
:100ED000808CC005C00D70470146034888600348F8
:100EE000C8600846704700000AD7A33C5073A43D71
:100EF000002101607047FFB581B01C4617460E0007
:100F000007D0019D02E02846B047ED192046641E37
:100F1000F9D2019805B0F0BD02E008C8121F08C15F
:100F2000002AFAD170477047002001E001C1121F6A
:100F3000002AFBD17047000010B503231022074997
:100F40000748FFF7D8FF0748002101600448032342
:100F5000082205493030FFF7CEFF10BDD90E00083A
:100F60000805002048010020F10E0008F8B5154ED4
:100F70004520000637460025183FB06002F08CFC83
:100F80000024A000395880190F4A01F006FE641CA5
:100F9000032CF6DB01F0C4FAFF20F5306D1C85420E
:100FA000ECDB45210906B068FFF731F9074D002455
:100FB000B060A0008019294601F0DCFD641C032C00
:100FC000F7DBF8BDC80400201F856B3F0000FA4323
:100FD00070B592B020250320694606950877002455
:100FE000CC77092006A9C006FFF771FB0121480252
:100FF000FFF78AFC01210846FFF76EFC294806909E
:10100000294807900220099080200B9040000C9006
:10101000089480000E950D900A94C000234D0F9007
:1010200006A910942846FFF7B5FA1E4E0221403E4D
:101030003046FFF752FA01213046FFF744FA68467E
:10104000FFF785FA01206946009408710420059095
:10105000029404943046FFF75FFA01210722490405
:101060003046FFF722FA072220213046FFF71DFA0B
:101070000120FFF775FA3046FFF737FA01213046B5
:10108000FFF718FA3046FFF75DFA01212846FFF70F
:1010900075FA07480088FFF754F90349486012B011
:1010A00070BD0000402401400C02002008000240F6
:1010B000BAF7FF1F10B50B49002803D0012808D04C
:1010C000002010BD0888FFF73CF90749FFF7A7F893
:1010D00010BD4888FFF735F9014602484068FFF720
:1010E000DBF810BD0C02002067661E3BF0B58400E3
:1010F000304887B005597F2168004008C905029033
:10110000FFF789F806462946FFF789F8294930395B
:1011100009680191FFF783F8059029460298FFF7C7
:101120007EF82449203909680091FFF778F80746CE
:101130002048083001592846FFF769F81D490490F6
:1011400028390968FFF76BF83146FFF768F81A4944
:1011500009680391FFF763F80599FFF707F8154948
:10116000064610390851083904980968FFF757F8FE
:101170000299FFF754F80399FFF751F83946FEF743
:10118000F5FF0C490839085101463046FEF7EEFFDD
:10119000084E1036305130460838055100990198F4
:1011A000FEF7E4FF0146A01901F0E4FC305907B056
:1011B000F0BD000080010020B4010020F8B5054614
:1011C0000C46480000D1294C01210026C9078D4258
:1011D00003D94C404D408126F605002C09DC204601
:1011E00048402C460546012189073046FEF7BEFFE0
:1011F000064621462846FFF7CFF810D82146284654
:10120000FFF705F8074621462846FEF7AFFF0446DC
:101210007F213D46C9053046FEF7A8FF0646214618
:101220002846FFF739F804461149FEF7F8FF11493F
:10123000FEF79CFF2146FEF7F2FF0F49FEF796FFEF
:101240002146FEF7ECFF04460C493046FEF7E7FF67
:101250002146FEF78BFF0A49884202DD0949FEF765
:10126000D6FF0949FEF7DBFFF8BD0000567C0A2ACD
:101270004BC887BD7EAE36BE42DA833FDB0F493FA7
:10128000DB0F4940DB0FC940E12E654270B50025F8
:1012900006462C46A00030580146FEF7C0FF2946FE
:1012A000FEF764FF641CE4B20546032CF2D3FFF79B
:1012B000E9FA01467F20C005FEF7EEFF70BD000091
:1012C000F8B51D4D0C216E68074632464A431B494E
:1012D000184853182A6894001959002F02D0491C45
:1012E000195102E0491E16481951002E06D1002A54
:1012F00001D0012A02D10F49FEF791FF0021C94315
:10130000FFF708F8AE683159FEF730FF002800DD1E
:1013100030512968002902D1002800DD706068681A
:101320000C225043054A890080184058002800DAF2
:101330004042F8BDCDCCCC3D980100208C0500206A
:10134000CDCCCCBD30B5002207239C1A6418203CBC
:10135000855CE47FA54201D0002030BD521C072AE5
:10136000F3DB012030BD0000F0B5CD48CC49006969
:101370004B78CC4D002487B0002862D00A46012863
:1013800066D0002801DA02F0BBF9C5488069002860
:101390007ED0C44881784278080210434205A8787C
:1013A000520DC108E878430119434B05810928799A
:1013B0005B0D800001436879860231434905490D80
:1013C00000914108A879C60131430609E879490529
:1013D00007013E437605760D0196C609287A490D28
:1013E00040000643687A47023E437605760D029632
:1013F0008608A87A87013E437605760D0396EE7A35
:101400004009F60030430490A8894005400D05903E
:10141000A348C069002873D0012870D018E10E5C81
:101420000F2E07D0401C8006800E1070D06C401C20
:10143000D06409E0907001201061906C401C9064B1
:10144000A3E79849964AC03910788342E7D19CE7D0
:1014500091788B4201D9581A02E04020401AC018F6
:10146000182892DB00230E4619360846B4461AE0C7
:10147000C217920E121892099201861A894AC03A2E
:10148000B2181778421AAF54864F7600803F00E0BA
:10149000F0E0F61936880127BF02BE4202DD002ABD
:1014A00000DD0123401C6045E2DB002B1CD17C4E9B
:1014B0000127B761E87D40070ED5306C002802D1C6
:1014C00001F02EF8306401F02BF8326C821A764865
:1014D000824203D9B76201E03464B462E87D000758
:1014E00001D5776200E074626D48297E41614178E0
:1014F00001700461016A491C016246E700E012E0E4
:101500006748012646608460FF27009D5137BD4231
:10151000C56B01DA6D1CC563822D2EDD056D1E2D98
:101520002ADDC6618660614812181D180E18104623
:10153000FEF7FCFE5E4F38602846FEF7F7FE786047
:101540003046FEF7F3FE0025B860AE00B8595949A1
:10155000FEF765FE6D1CB851032DF6DB0098AD3823
:10156000FEF7E4FE5449FEF75AFE7F21C905F860F4
:10157000884203DDF96006E0C46369E00121C90720
:10158000884200D9FC604D4D4D4EE878002829D0A6
:10159000287A0028E87904D0002804D1494938681D
:1015A00003E000280CD03146386802F027F8386094
:1015B0003146786802F022F878604249B86807E05E
:1015C000404E3868314602F019F838603146B86844
:1015D00002F014F8B86035490198494288420EDD9E
:1015E00001200DE03146386802F008F838603146D5
:1015F000786802F003F878603349B868E8E70020BB
:1016000028700298884201DD012000E00020E87087
:101610000398884201DD012000E000202872049830
:10162000884201DD012000E00020E8710598884231
:1016300001DD012000E00020A87000F071FF1849D2
:101640004864086A092803DD0120C8600A2008628E
:1016500000F066FF124DA96B411A1348814205D96B
:10166000686B6C63286500F05BFFA863686BAC6116
:10167000401C686300F054FF09494A6C821A0A480A
:10168000824202D90120C86201E02046CC628A6A07
:1016900010434A6A104300D00120486007B0F0BDF3
:1016A000980000209404002040420F001FFCFFFF20
:1016B000C403002022F19F3AFFF01F3AF4020020F9
:1016C000CDCC4C3FCDCC0C3F9A99193F00B502F0E0
:1016D0006DF800BDF0B57F208BB0C0050490FB48CD
:1016E000807B002802D13F20000604900025F84F9F
:1016F0002C46F848AE008059F74942005208B851CC
:101700008A4201DCBC510FE00122D207904204D88A
:101710007F22D2050023009203E0F04A0023F04923
:10172000009201F0CFFCB8516D1C032DE1DB01F0FC
:101730007DFEE74D04982968FEF771FDE94E3146BC
:10174000FEF76DFDE84F3946FEF769FD01906968C7
:101750000498FEF764FD3146FEF761FD3946FEF759
:101760005EFD0290A9680498FEF759FDDF49FEF777
:1017700056FD3946FEF753FD0390D448DC4EC07841
:101780000C3D002803D0DB480068002834D0DA483C
:101790000199016002994160039900278160D44852
:1017A000BE008159D4488059FEF731FD7F1CA851F5
:1017B000032FF4DB01F050FF002001F0DDFC0120DD
:1017C00001F0DAFC022001F0D7FCC048CB4B0278D4
:1017D000CB48CC490127CC4E002A7DD0BD4AD568E4
:1017E000CA4A954202DD0A68002A76D01A68012AA0
:1017F000FBD007600F6053E10021B54802F0E2F82A
:10180000C34F03997868FEF70AFD049001213868F8
:10181000C90748400399FEF702FD0590B86803998F
:101820000746FEF7FCFC0690BA480990BA480890B3
:10183000BA480090A548BA49027AC079002A7DD0FA
:10184000002814D003C94700490049087F083846DA
:101850000791FEF7A1FD00D9079F08993846FEF7CA
:1018600091FD16D838460899FEF716FD13E00120C1
:10187000C007874237D8AB480168AB4801600020F9
:10188000FFF734FC0499FEF771FC3168FEF7BFFCEA
:101890004DE07F20C00508908D4800990068470002
:1018A0007F083846FEF76EFD05D838460099FEF7EA
:1018B000F3FC074601E07F27FF0508990998FEF72A
:1018C000AEFC009099483946FEF7A9FC0099FEF756
:1018D0004DFC07468E4801E0D7E0DEE0816801203C
:1018E000C007814202D931680198CFE78D4801686D
:1018F0008D48016031680198FEF789FC3946FEF792
:101900008EFC00907F203946C005FEF780FC07461C
:101910000020FFF7EBFB0499FEF728FC3168FEF787
:1019200076FC3946FEF77BFC0099FEF71FFC286029
:1019300071680298FEF76BFC686000E001E0B16836
:101940009EE000287ED07F200027C0050999FEF781
:101950005EFC0A90724903C940004D006D084008C2
:1019600006462946FEF718FD00D835462846089950
:10197000FEF708FD04D828460899FEF78DFC01E023
:101980007F20C00507905248BD004059009946008D
:1019900076083046FEF7F6FC05D830460099FEF78B
:1019A0007BFC064601E07F26F60507990998FEF7BD
:1019B00036FC079031460A98FEF731FC0799FEF78E
:1019C000D5FB0790524881680120C007814209D9A0
:1019D0004748415901A84059FEF719FC3C490C39C8
:1019E000485128E04F4841594F48415140484159DA
:1019F00001A84059FEF70BFC0799FEF710FC0646BC
:101A00007F20C0050799FEF702FC07903846FFF7D4
:101A10006DFB04A94959FEF7A9FB35494959FEF761
:101A2000F6FB0799FEF7FBFB3146FEF79FFB0146ED
:101A300027480C3841517F1C012F8BDD2C488168D1
:101A4000069800E005E0FEF7E2FB21490C398860CA
:101A5000B0E600273348BE008159334881513846EB
:101A6000FFF744FB04A98959FEF780FB20498959F7
:101A7000FEF7CDFB7F1CA851012FEBDD1C488168D0
:101A80000698FEF7C4FBA86094E604602848006846
:101A9000012800D11C60F46154E0264A04601760FC
:101AA000F761006800284DD0380050D02249284600
:101AB000FEF7B5FB2149FEF759FBB061134885429B
:101AC00055DD1F480168002950D050E0F402002085
:101AD00084020020C40300200AD7233C000080BFFA
:101AE0000AD723BC0000574435FA8E3C0000FA4365
:101AF000BC04002024010020F80500205C00002028
:101B00006C0000207000002000000020CDCCCC3DF7
:101B1000180100209A99993E00005C423333733FCC
:101B2000EC040020E0040020800100203333333F28
:101B3000A40000203C00002077BE7F3F6F12833A54
:101B400068000020D948B46104600C600FE0D849F7
:101B50008D4203DAD548B461046008E02846FEF7F8
:101B600056FBD449FEF75BFBB061D0480760D24812
:101B70000079002819D0D149B461D14B0868984246
:101B800011D2D04A90420EDA486898420BD2904265
:101B900009DA8868984206D2904204DAC8680028B8
:101BA00001DD904201DBC8480760C8480068002892
:101BB00003D1C748B169814223DA7068002807D091
:101BC00000F0AEFC7168401AC249884200D97460C6
:101BD0000025E8B2002101F0E1FC6D1C032DF8DDC9
:101BE000BD4D00212A46BD4800F0D7FFBB482A461C
:101BF0000021001D00F0D1FFB461376034620BB0EA
:101C0000F0BD0020306000F08BFC7060B4480068CC
:101C1000002802D0B348C068B061B348002400680F
:101C200001283FD1B148B34D0168B148814205DA7E
:101C3000FEF7EDFA2946FEF7F2FA0446AE480168CF
:101C4000AE48814205DAFEF7E2FA2946FEF7E7FAE6
:101C500004467F20C005844201DD044601E0002CDB
:101C600007DDA7492046FEF7DAFA7169FEF77EFA2A
:101C700003E097497069FEF7CAFA3F2109067061CF
:101C8000884201DD716105E00121C907884201D95F
:101C90000020706120467169FEF768FAB169FEF7AD
:101CA000BAFAB0619748984F00680890002804D1AC
:101CB0000120B968C0074140B9603868009001460A
:101CC0008648083880690646FEF7A1FA09907D68C3
:101CD0002946FEF79CFABC682146FEF747FA0790B2
:101CE00030460099FEF742FA06462946FEF78FFA7B
:101CF0002146FEF78CFA059029460998FEF736FA38
:101D00002146FEF784FA069030462946FEF72EFA61
:101D10002146FEF72BFA04900898002803D10120F1
:101D2000C0074440BC60002404AEA50070592146A1
:101D300001F0E6F9641C7051032CF6DD0020644FBD
:101D400004460090A50070590099FEF725FB01D2CA
:101D50007059009070593946FEF714FB00D277593C
:101D6000641C042CEEDB7F21C9050098FEF74FFAB6
:101D70003F252D06A84200DD2846584C083CA168A6
:101D8000FEF70AFB04D26149A068FEF7EFF903E011
:101D90005F49A068FEF73BFA4D4FA060A84201DD05
:101DA000A56003E05B49884200D9A1604B4801214E
:101DB00008388068C907884200D957485749FEF754
:101DC0002EFA00280DDD3946FEF7D0F9074600242B
:101DD000A50070593946FEF71AFA641C7051042C9C
:101DE000F6DB3248006801281ED100252C46A700EA
:101DF000F0592946FEF7C6FA00D2F559641C042CA6
:101E0000F5DB4748854201D9054603E00120C007BC
:101E1000854209D90024A700F0592946FEF7F7F9B1
:101E2000641CF051042CF6DB00202C4905460839CF
:101E30000862AC00305901210027C907884202D945
:101E40000020305104E07F21C905884200DD315176
:101E50007F20C0053159FEF7E2F93946FEF786F9D1
:101E6000305101F05DF90146E8B201F097FB3059BD
:101E70000121C907884202D90020305104E07F21A6
:101E8000C905884200DD31513159144C083C206AA3
:101E9000FEF76CF96D1C2062032DCADD0121C943D8
:101EA000206AFEF737FA2062A9E6000068000020E9
:101EB000CDCC4C3D9932873FF4020020C403002072
:101EC000A4707DBFA4707D3F3C0000209C000020DA
:101ED0006F12833A40420F00EC51383F0800002057
:101EE0002C010020F80400206000002024000020C5
:101EF000CDCC2C400000404028000020333353401C
:101F000017B7D13864000020EC0500200AD7A33BA6
:101F10000AD7233CCDCCCCBD17B7D1B8CDCCCC3D66
:101F2000CDCC4CBE10B50020FFF7CAF910BD08B5E6
:101F3000C100081A0090411E009101D30846FAE73B
:101F400008BD000006460024E0B2002101F026FB97
:101F5000641C032CF8DD0B4DAF0000240CE0FF20C7
:101F600000F0FEFD2846FFF7E2FFFF2000F0EEFD47
:101F70002846FFF7DCFF641CB442F0DB3846FFF76D
:101F8000D6FFEAE7400D030010B50349FEF7EEF86F
:101F900000F004F810BD0000DB0FC93F70B5044627
:101FA000134E144D03E03146FEF7E0F80446AC4210
:101FB000F9D8114DAC4204DD3146FEF728F904464C
:101FC000F8E70120C0070D490D4D8442204605D990
:101FD000FEF725F92946FEF7C9F804E0FEF71FF9D8
:101FE0002946FEF718F92146FEF719F970BD0000E1
:101FF000DB0FC940DB0F49C0DB0F49407B81CF3E7F
:1020000083F9A23FFEB500273D460024681CFEF779
:102010008DF901900E49A8000E58601CFEF786F954
:102020000090A10071580198FEF7F9F80099FEF7A9
:10203000F6F80849FEF7F3F83946FEF797F8641CFE
:102040000746032CE9DB6D1C032DDEDBFEBD000023
:10205000000200208D976E3F10B5FFF7D3FF0149B6
:10206000086010BD74000020F8B50020012400F0C5
:10207000BBF8214DA8423ED1FF2000F0B5F8A842A0
:1020800039D12046022500F0B7F81C49486009689C
:10209000FEF778F911D100260024B70028466D1C00
:1020A00000F0AAF81649A200C959641C8850032CF4
:1020B000F4DB761C032EEFDB00E00B2528466D1CBD
:1020C00000F09AF80F4C206028466D1C00F094F840
:1020D0006060284600F090F8A060362000F08CF890
:1020E000FEF736F908490860372000F085F8FEF75A
:1020F0002FF906490860F8BD0100AA1274000020FB
:1021000000020020C80400206000002064000020BD
:10211000F8B500F075F800F055F8002001242349C7
:1021200001F01EFD224920460225096800F06CF8E6
:1021300000260024B7001F48A100C0594158284676
:102140006D1C00F061F8641C032CF4DB761C032E7C
:10215000EFDB194C28466D1C216800F055F86E1C09
:102160002846616800F050F83046A16800F04CF84D
:1021700012487F240068E405002801D0214600E0D1
:102180000021362000F040F80D480068002801D0FA
:10219000214600E00021372000F036F80349FF20F7
:1021A00001F0DEFC00F01CF8F8BD00000100AA12EE
:1021B0007400002000020020C804002060000020FD
:1021C0006400002010B50548FEF702FA042803D089
:1021D000FEF72EFA012010BD002010BD007C000883
:1021E00010B5FEF725FA10BD0249800040180068BE
:1021F00070470000007C000800B5FFF7F5FF00BD48
:1022000010B5FEF743FA10BD10B501F0A9FC10BDE2
:1022100030B53F4C2178814277D006216218203AB0
:10222000D27F6254491E0129F8DA207039493848B2
:10223000FFF788F87F25002802D06570032030BDA5
:1022400034493348C91DFFF77DF8002802D0657076
:10225000042030BD2F492E480E31FFF773F80028B7
:1022600002D06570012030BD2A4929481531FFF799
:1022700069F8002802D06570022030BD2549244845
:10228000C91FFFF75FF8002802D06570092030BD34
:1022900020491F480E39FFF755F8002802D0657015
:1022A0000A2030BD1B491A481539FFF74BF80028A2
:1022B00002D065700B2030BD164915481C31FFF760
:1022C00041F8002802D06570052030BD1149104842
:1022D0002331FFF737F8002802D06570062030BDA3
:1022E0000C490B482A31FFF72DF8002802D0657001
:1022F000072030BD074906483131FFF723F8002891
:1023000003D06570082030BDFFE70020FBE7000028
:1023100090000020953B0008F8B500F07FF804001D
:1023200064D00125354F012C1ED13868002832D0E9
:102330003348056000203860FFF7EAFEFFF794FE9F
:10234000002002460C26034673432E4E00219B19A3
:102350008E00491C9A510329FADB401C0328F1DB4B
:1023600000F0DEF8284908600221284E0B2C17D017
:102370000A2C1CD02648042C21D0032C23D0072C57
:1023800000DB3D60052C23D0062C24D0072C2ED05A
:10239000082C2FD022E000F0DDF8FEF7E7FDCBE7B8
:1023A0001C4A05E01060081A30603D60E9E71A4AEF
:1023B0001068002801D00020F4E70120F2E7057141
:1023C0000F4805600AE00E490D600021017105E02B
:1023D00000F0B6FE01E000F0A5FE3060386800288D
:1023E00004D03068002801D105480560F8BD00F030
:1023F00047FBF2E7FFF796FDEFE700007C000020C7
:102400003C0000208C0500205800002040000020E7
:10241000F4020020640000206000002070B53748FE
:10242000374C0068002864D0364B37481A68510092
:10243000490881420BDA9D686D006D08854206DA15
:102440005D686D006D08854201DA00202FE02F4D98
:10245000AA4202D89E68AE4206D95E687600760827
:10246000864201DA012022E0294EB24202DC9A685B
:10247000B24206DD5A6852005208824201DA022056
:1024800015E05A68AA4208D9814206DA9D686D00B3
:102490006D08854201DA032009E0B24208DD81427D
:1024A00006DA996849004908814201DA042020606F
:1024B00000F036F806CC083C914200D0E060E268BB
:1024C000801A144A90420FD9002904D1124A90422E
:1024D00001D90C2005E0114A904204D97F2903D08C
:1024E000FF20A06000E0A1606160A068FFF790FE9F
:1024F00070BD7F20A0606060002070BD00000020E3
:1025000080000020C4030020CDCC4C3E333333BFC9
:102510003333333FA086010060AE0A0020A10700DC
:1025200000B501F003FB00BD1CB5232001214004D0
:10253000FEF7D2F901216A46117100209071D07125
:1025400003205071009169460148FEF7C0F81CBD98
:1025500000140048F0B591B0FFF7E2FF0F90054678
:102560000B900A9000208100574B0CAA5B58401C2E
:1025700053500328F7DB8CE00A980A95281A099033
:1025800001D10120099006226946432000F09EF9FE
:10259000009801990002401800B2FDF7C7FE0790AD
:1025A000029803990002401800B2FDF7BFFE0690A2
:1025B000049805990002401800B2FDF7B7FE434E9B
:1025C0000890307800F06EFA20464149FDF7A8FDEA
:1025D0004048814201D9012100E000213068C20752
:1025E000D20F914201D0401C306038480178090771
:1025F000090F00260160B4000CAF06A83959005934
:10260000FDF7CAFE04D238593349FDF7AFFD385102
:1026100006A839590059FDF7B5FE04D238592E499C
:10262000FDF7F5FD3851E0192C4900F0A3FA3859AF
:102630002B4940004008FDF799FD014606AF385987
:1026400040004008FDF7A8FE06D2FFF769FF0B9097
:102650001E48012101600BE00998FDF772FE214937
:1026600000F0D8FA024618483959201800F095FAB7
:10267000761C032EBFDB7D24E400FFF751FF401BD7
:10268000A04203D20A20FFF752FCF6E7FFF748FF0B
:1026900005460B982C1A1448844205D20F9813490A
:1026A000281A884200D267E70B98291A0E488142FF
:1026B00007D20020044A01468300401CD150032861
:1026C000FADB11B0F0BD0000D404002000010020AE
:1026D00024F40000127A0000CDCCCC3D0000484428
:1026E0000000C8420024F44880841E00C0E1E400D9
:1026F00010B58AB002206946087101208871C8713E
:10270000032040020924E40600902046FDF7DFFF85
:10271000042209212046FEF712F804220A2120464D
:10272000FEF70DF801214805FEF7E2F80121084601
:10273000FEF7EAF801218805FEF79AF90121C8059C
:10274000FEF796F91020FEF787F90B48029000205B
:102750000F2104910390AB21084C0590079006913E
:10276000089002A92046FEF71DF801212046FDF73A
:10277000FDFF0AB010BD00001808700000540040B2
:10278000F8B50F461646012100F03AF809208002FC
:1027900001230090F2B25B06D0211248FEF73AF80E
:1027A000114D0020287018E0002408E0641C600B24
:1027B00005D00E490868401C08600020F8BD0421BF
:1027C0000848FDF7E7FF0028F0D00648FEF71CF8A0
:1027D00029788A00B850491C29702878B042E3DB78
:1027E0000120F8BD00540040240200201402002003
:1027F00008B501226946FFF7C3FF009808BD000035
:10280000F3B581B00F4600241A4D1B4E02E0641C44
:10281000600B22D10121C9033046FDF7BBFF01281F
:10282000F5D0012040030090FAB20023D0213046B9
:10283000FDF7F0FF02E0641C600B0ED10221304670
:10284000FDF7A8FF0028F6D00198C1B23046FDF789
:10285000DEFF07E0641C600B04D02868401C286081
:102860000020FEBD01213046FDF794FF0028F1D085
:102870000120FEBD140200200054004070B50D463A
:1028800000240221FFF7BCFFE9B20C4D2846FDF7FA
:10289000BEFF07E0641C600B04D009490868401CB7
:1028A000086070BD40212846FDF774FF0028F1D074
:1028B00001212846FDF764FF70BD00000054004070
:1028C0001402002010B5FFF713FF10BD10B5FFF77D
:1028D00057FF10BD10B5FFF78BFF10BD10B5FFF708
:1028E000CDFF10BDF0B54C4C4C4D87B02168286829
:1028F000FDF78DFC286061686868FDF788FC6860FA
:10290000A168A868FDF783FC00240A27FF43A8609C
:10291000A600A8593946FDF7FDFC641CA851032CFC
:10292000F6DB3F480024006804AF00903D48A60055
:1029300080590099FDF773FC641CB851032CF5DB3A
:10294000394E049834682146FDF769FCB168FDF7FB
:1029500062FC019001990498FDF761FC2146FDF7A6
:1029600005FC074601990598FDF759FC7168FDF7CC
:10297000FDFB044621460598FDF751FC0199FDF742
:102980004AFCB06021460698FDF749FC3946FDF740
:1029900042FC3060069A01461046FDF740FC214695
:1029A000FDF7E4FB70601D48FEF770FC1F49204AEC
:1029B0004118914222D27F22D205014600241046BE
:1029C000FDF76AFC0090A700E959FDF728FC641C9C
:1029D000E851032C01DA0098F5E711483F21090678
:1029E000006800F029F907460024A0002958801942
:1029F0003A4600F0D2F8641C032CF6DBB16830686C
:102A0000FEF7DCFB0B4C2060B1687068FEF7D6FB6C
:102A1000606007B0F0BD0000C8040020B0040020D2
:102A200054000020BC04002018010020CCCCCCC0F5
:102A300032337300EC040020F8B500250D4F00F090
:102A40002BFF0024A6000A21B859C943FDF762FCF8
:102A500001460948094A301800F09FF8641C032C0D
:102A6000F0DB7D20C000FFF762FA6D1C642DE6DB11
:102A7000F8BD0000B0040020180100209A99593FC9
:102A800010B50120FEF71CFC10BD0EB500226B46F0
:102A90001A805A8001911A819A726946FEF724F9C8
:102AA0000EBD000070B50646FFF73AFD194C2169CE
:102AB0002061451A3046FDF744FC1749FDF7AFFB8E
:102AC00006460121204689070C3000F053F82846BD
:102AD000FDF737FC054630466168FDF798FB29464F
:102AE000FDF79DFB0D49FDF79AFBE168FDF73EFB05
:102AF0000B49E060884205DDFF2000F031F87F20BF
:102B0000C00503E0FF2000F021F8002060600020F5
:102B100070BD0000EC0000208988883D6F12833A68
:102B200048E1FA3E70B50D460446FFF7F9FC214630
:102B3000FDF7F6FA6C432009814203D90F2000F01B
:102B40000FF870BD0F2000F001F870BD10B5C00780
:102B500003D001210148FDF702FE10BD001400481A
:102B600010B5C00703D001210148FDF7FAFD10BDE3
:102B70000014004870B504460120C0070D464540CA
:102B80000E462068FDF708FC00D226602846216822
:102B9000FDF702FC00D2256070BD70B505460C46FD
:102BA0007F2016461146C005FDF731FB2146FDF793
:102BB00036FB044631462868FDF731FB2146FDF718
:102BC000D5FA286070BD0000F3B5104E104F8C0090
:102BD00083B031597869FDF722FB019030460C38FB
:102BE000055938692946FDF71AFB0090B969039821
:102BF000FDF715FB0099FDF7B9FA0199FDF707FB01
:102C0000314635510C39085105B0F0BD2806002079
:102C10009801002010B5FDF73FFB7F24E405214615
:102C2000FDF7F9FAA04201DD204610BD0121C907D8
:102C30008842FAD9002010BD10B5FDF7F0FA7F24C4
:102C4000E4052146FDF7E7FAA04201DD204610BD6C
:102C50000121C9078842FAD9002010BDF8B5164AEB
:102C600009018C1805462768A1686068FDF77EFA9F
:102C70000090E168FDF77AFA01467F20C005FDF774
:102C80000BFB0099FDF7CBFA064639462846FDF7BF
:102C9000BEFA3146FDF7C3FA3946FDF767FA054635
:102CA0007F203146C005FDF7B2FA0099FDF7B7FA6B
:102CB000256060602846F8BD080500200EB57D201F
:102CC000C000FFF734F9FEF701FDFFF72DFCFF20F0
:102CD000FFF746FF00F054FE00F012FFE148FFF757
:102CE00026F9FFF7EFFD00F0DFFB0021084600F0BA
:102CF00055FC0021012000F051FC0021032000F0D0
:102D00004DFC0021022000F049FC00F099FD00F08C
:102D100087FD002836D0FEF75BF9D3490120887380
:102D2000FFF79AF9FFF7A0F900F0E8FCCF4E002476
:102D30000020FEF7BFF9B168FDF771FA05460120E2
:102D4000FEF7B8F90146CA4FC8483A460830FFF7BF
:102D500024FF3A462946C548FFF71FFFC548641CB3
:102D60008442E5DBC44D3068062400902046FDF720
:102D7000DDFA074601460098FDF78EFAA84203DD0A
:102D8000776104E0042037E0641E002CEEDC7169FA
:102D90000098FDF781FAB949884201DA02202BE058
:102DA000FFF7D8FB00F056FCFFF746FEB44800687A
:102DB000002801D007201FE0FFF7B2FB7063FFF788
:102DC000AFFBAA4C0546606B281AFDF7BAFA2063E0
:102DD000002802DC7F20C0052063AA49FDF71FFA06
:102DE000A9492063884201DD062005E0A448656307
:102DF0000068142802DD0820FFF7A4F800F04CFD5D
:102E0000FEF768FCFFF76EFD0020FEF753F9974CC4
:102E1000A168FDF704FA06460120FEF74BF90146CA
:102E2000934F20463A460830FFF7B7FE97483A4698
:102E3000016820460C30FFF7B0FE95496069FDF748
:102E4000EEF90190934A01A82168FFF7A6FE3A46E1
:102E500031462046FFF7A1FE0121C9430198FDF745
:102E600059FA06468C492068FDF7D9F93146FDF735
:102E7000CEF90090E4688948844256DD7B4F786A39
:102E80000646FDF753FA8549FDF7C9F92146FDF7D6
:102E9000C6F90099FDF76AF97349B4007031085119
:102EA0000646F86A002808D0002030398200401C0D
:102EB0008E500C28FADB0020F8626B4878491030FD
:102EC0000059FDF7ACF9684F029040373959304648
:102ED000FDF79DF90299FDF749F939463E51303920
:102EE00008510146FDF79BF93E4601466036A019A0
:102EF0006C4AFFF752FE5D485C49406A401C4862DC
:102F00000C2812DB00204862306800240290A700E1
:102F1000F0590299FDF736FA04D2F059029053485D
:102F2000611C8162641C0C2CF1DB504F3869002855
:102F300000D05A485C49FDF719F90646B86AFDF712
:102F4000F5F9564C2146FDF76AF9F968FDF767F97E
:102F50000099FDF70BF93146FDF714FA03D35349F5
:102F60003868884201DA012000E000203861B86A40
:102F7000FDF7DCF92146FDF752F9F968FDF74FF945
:102F80000099FDF7F3F8786049480068002801D0FF
:102F9000FFF7C2F93869002801D0082108E0454848
:102FA0000068002806D044480068002804D00F219B
:102FB00042481EE00C211BE02B488079002807D0F6
:102FC0000026B869002817D0386A002802D004E02B
:102FD0000126F6E7FFF7A4FA3862FFF7A1FA396A8B
:102FE000411A3648814202D90020B861386208216E
:102FF0001C48FFF797FD2BE0F86900281FD0FFF76A
:103000008FFA0446386A002809D13C62002E03D0AA
:10301000FF20FFF79BFD02E0FF20FFF7A1FD386ACC
:10302000211A2648814201D8386A04E0F869401E16
:10303000F861002038622249201A884208D9002EFF
:1030400003D0FF20FFF78CFD02E0FF20FFF77EFD9D
:10305000FEF78AF97D24E400FFF762FA401BA042E4
:10306000FAD3ACE6A0860100F40200202400002080
:10307000492E7F3F88130000CDCC6C403333534042
:1030800014020020BD3786350AD7A33C200000205B
:103090006666864029EA7F3F0000A03FCDCCCC3D4C
:1030A00042F27C3F67B17F3F00006040CDCC2C40B6
:1030B00000000020A00000209C00002020A10700AC
:1030C000E0930400FFB581B007460E4610460A9D06
:1030D000FDF79DF8044628460499FDF798F8054643
:1030E00031463846FDF793F82946FDF798F8214612
:1030F000FDF7D2F80499FDF739F805B0F0BD0000EE
:1031000070B503468C00044D044A60191946FFF758
:1031100044FD285970BD000094020020BA30223FBF
:103120007047000005490868022804D001DA02202F
:103130000860401C70470020FAE70000980100205A
:103140000C494868002804D0012807D002280AD179
:103150000BE0084844308860012003E00548503007
:10316000886002204860401C704702483830886000
:103170000020F7E798010020F0B506469E489F49D9
:10318000C2789F489F4F0068B4008FB0002A03D0D8
:10319000994A127A002A11D0002803D03859FDF735
:1031A0003EF83851022E1ADA964918310859C207EA
:1031B000401CD20F0851002A07D010E00028EDD1A2
:1031C000914800680028E9D0ECE78E483146483045
:1031D000005900F0D7FB01468A480C3001518B485A
:1031E0000025015987483C300059FDF7CBF804D140
:1031F00087480059002800DD012584480121005935
:10320000C90748407F493C310959FDF7BBF806D151
:103210007F4801590120C007814200D90125022EB3
:103220000BDA78480C3001593C300059FCF7EFFFBD
:10323000400078494008884227DC002D25D171489C
:103240000221543005592846FDF764F86D49603174
:103250000959FCF78BFF6E4909590091FCF786FF6D
:103260006D49FCF7DCFF6D490959FCF7D8FF6C4943
:103270000968FCF7D4FF3959FCF778FF38516148E9
:10328000603005510C380099015160480C300159EB
:103290005C482018FFF76EFC6048183007595C48FE
:1032A00039460059FCF7BBFF5C490C3909590091BC
:1032B000FCF7B5FF534D7F2101903C35C9053846D9
:1032C000FCF7A5FF0099FCF7AAFF5649095903919D
:1032D000FCF7A5FF0199FCF749FF4A490959FCF79A
:1032E00045FF28514D480C3000590290002801DC60
:1032F000285972E040480AA9827807A8002A06D017
:10330000464A243A12590251444A183A05E03D4AC5
:10331000603A125902513B4A543A12590A51005923
:103320007F22D2050090904208590190014604AFD7
:10333000104608DAFCF76BFF0D903B4801990059E5
:10334000400040080BE0FCF762FF0D9000990198E7
:10335000FCF7A2FF01463448005940004008FCF742
:103360005EFF0D99FCF702FF3851264824300159C1
:103370000398FCF74CFF0299FCF751FF27494439A9
:10338000C9690D91FCF74BFF0E901E483030015972
:103390001830025901921046FCF739FF0299FCF7E8
:1033A0003EFF0099FCF73BFF3959FCF738FF0D99B8
:1033B000FCF735FF0E99FCF72AFF1249019A3031CC
:1033C0000A51104A0399243211513146FFF7FCFB90
:1033D00001462859FCF7CAFE285110494439C968EA
:1033E000FCF71DFF2851094801596019FFF7C2FB7E
:1033F00028590FB0F0BD0000F402002048E17A3FE8
:1034000000000020B005002068000020D03B00082C
:1034100078020020CDCCCC3D7EAA2A3EDC010020E3
:1034200054000020BC04002084020020F8B5144899
:1034300001681448FCF730FF134CE0611348016841
:1034400013480068FCF728FF7F25124EED05334630
:10345000114A12490095FFF735FEE060B04201DDE8
:10346000E66002E0A84200DAE5600D48C078002876
:1034700004D00C49E068FCF7D2FEE060F8BD000023
:103480005400002017B7513B98010020380000205D
:1034900024000020713DAA3F66667640000020406F
:1034A000F40200206666663FFEB5022569460D718E
:1034B0000320487100248C71CC7101212846FDF74E
:1034C00017FA314F31483946FFF7DFFA01210E0272
:1034D0003046FDF70DFA39462D4F3846FFF7D5FA3D
:1034E0002C48602101800121418084810682846012
:1034F00010200924E406009069462046FDF7E7F80D
:10350000042211462046FDF71AF922493846FDF7F4
:1035100033FB4020009069462046FDF7D8F8012291
:1035200006212046FDF70BF91A491848FDF724FB40
:103530008020009069462046FDF7C9F80122072146
:103540002046FDF7FCF813491048FDF753FB124CD9
:10355000694620460095FDF7BAF80122114620463B
:10356000FDF7EDF80B490948FDF78CFB01210748F1
:10357000FDF7ECFA01210548FDF7F2FA0121384682
:10358000FDF7E4FAFEBD0000CF0700000004004094
:1035900000200040340600200004004810B50A4610
:1035A000044612491046FCF73AFEFCF7D1FE00280B
:1035B00001DA002003E00E49884200DD08460D498B
:1035C000002C08D0012C09D0022C0CD0032C01D1E6
:1035D00080B2486310BD80B2886310BD054980B2D7
:1035E0004031086010BD80B20349F2E700E0F944C1
:1035F000CF0700000004004000200040F8B5064658
:103600007F20C0050C46814201DD044603E01049DD
:103610008C4200D90C4621460746FCF7F8FD31469E
:10362000FCF7FDFD054631460846FCF7F8FD31463E
:10363000FCF7F5FD2146FCF7F2FD2946FCF796FD67
:10364000009039466846FFF795FA0098F8BD0000EB
:10365000000080BF70470000FEB5254D254C2F6847
:10366000A66839463046FCF7DAFD2349096800911F
:10367000FCF7D5FD6168FCF7CEFD39460190FCF7FB
:10368000CEFD0099FCF7CBFD3146FCF76FFD0746F8
:1036900068680290266801463046FCF7C0FD009934
:1036A000FCF7BDFD3946FCF7B6FDA0600299FCF7BA
:1036B000B6FD0099FCF7B3FD3146FCF757FDAD6848
:1036C000064629460198FCF7AAFD0099FCF7A7FDDC
:1036D0003146FCF7A0FD29462060FCF7A0FD0099CB
:1036E000FCF79DFD0199FCF741FD6060FEBD000007
:1036F000BC040020B00500205400002070470000EA
:1037000030B589B0FEF70CFF2349884241D302202F
:103710006946087100248C71CC710320487108201F
:103720000925ED0600902846FCF7D1FF0122032170
:103730002846FDF704F801218803FDF7E5F817484E
:1037400003900120400305900420154D0790049438
:103750000694089403A92846FDF764FB032101227F
:1037600009042846FDF7ACFB01220E492846FDF767
:1037700044FB01212846FDF72FFB1B2069460872F8
:103780004C7201258D7202A8FDF754F80648856039
:10379000046109B030BD000080841E00A0860100D5
:1037A0000038014005010500980000201B48016811
:1037B00001221143016001688907FCD5416889082D
:1037C0008900416041680907890FFBD10168012226
:1037D00012069143016001688901FCD441683F23CE
:1037E0001B049943416041687B23DB03994341609B
:1037F00041680723DB0419434160016811430160FC
:1038000001688901FCD54168022211434160416889
:103810000907890F0229FAD1704700000010024001
:1038200010B57520FFF756F8682807D0982805D0FE
:10383000782803D0722801D0002010BD012010BDCF
:1038400010B580216B20FFF749F81248FEF76FFB97
:1038500001216B20FFF742F87520FFF73BF868283D
:1038600001D0012400E000246420FEF760FB182151
:103870001C20FFF733F8002C03D005211D20FFF793
:103880002DF818211B20FFF729F800211A20FFF737
:1038900025F810BD409C0000F0B593B00E2269469B
:1038A0003B20FFF713F8009801990002401800B27E
:1038B0004042FCF73BFD074602980399000240187E
:1038C00000B22C4D4042FCF731FD064604980599A4
:1038D0000002401800B2FCF729FD0124E40767400C
:1038E000A860C0C5089809990002401800B2FCF70A
:1038F0001DFD11900A980B990002401800B2FCF7C8
:1039000015FD10900C980D990002401800B2FCF7BC
:103910000DFD12901C3529681098FCF778FC10906A
:1039200069681198FCF773FC1190A9681298FCF76C
:103930006EFC1290119810996040109008466040FB
:10394000119012982F466040002410AE183F12903C
:10395000A50070590849FCF762FC0849FCF75FFCB8
:1039600070512146FFF77AF9641C7851032CEFDB84
:1039700013B0F0BDB004002000007A3D35FA8E3C53
:103980007047000070B50C4AC9008C180546606885
:103990000A492060FCF743FC064609492846FCF723
:1039A0003EFC3146FCF7E2FB6060226801461046AF
:1039B000FCF7DCFB70BD00003805002007715D3F9F
:1039C000E23B8A3DF8B5474D044601682868FCF79C
:1039D000D9FC04D161686868FCF7D4FC55D0206834
:1039E00028606068404E686031466068FCF717FCEC
:1039F0003E4F3946FCF713FC054631462068FCF77C
:103A00000EFC3946FCF70BFC0646FEF7C7FA354CB0
:103A1000083420602846FEF7C1FA60602846FEF7A9
:103A2000B3FA05463046FEF7AFFA2946FCF7F7FB36
:103A30000646A06060680146FCF7F1FB0546206879
:103A40000146FCF7ECFB2946FCF790FB28490546AC
:103A500088420FDD31460846FCF7E1FB7F21C905AE
:103A6000FCF7D9FB01462846FCF716FCFCF70AFFD9
:103A7000054600E01F4D20682946FCF7D0FB20607A
:103A800029466068FCF7CBFB6060164C1A4E083480
:103A9000A068009070680099FCF7C1FBB768054604
:103AA00061683846FCF7BBFB2946FCF7B0FB134DB9
:103AB000686030680099FCF7B2FB0646384621681A
:103AC000FCF7ADFB3146FCF7A2FB7F24E405286040
:103AD00021462846FFF74EF82146281DFFF74AF8F1
:103AE000F8BD0000040100200000824235FA8E3C3F
:103AF0006F12833AF4FD343F18010020E0040020E7
:103B000010B50848064941610749CA6903231202F2
:103B1000120A44042243CA6100218161036110BD7D
:103B2000FF117A0000E000E004ED00E00A4843697C
:103B300080690A494A68904201D2121A01E01B1AB0
:103B40009A18486008681218D008C300D21A0A6090
:103B50008A6810188860704700E000E018020020B2
:103B6000064A10B580008018FCF76AFD042804D0CE
:103B7000FCF75EFD0520FEF7E5F910BD007C0008AE
:103B80000C0300040003000C0100010001000C0202
:103B900000020002000C0100010003000C02000200
:103BA0000003000C0300030003000C0400040004E5
:103BB000000C0400030004000C0400030003000CCC
:103BC0000400030002000C040003000100000000D8
:103BD0009A99D93F9A99D93F0000003F9A99D93FC5
:103BE0009A99D93F0000003F0C3C000800000020DB
:103BF0003802000054040008A83C000838020020E5
:103C000010080000280F000831D3FFFF32012904FB
:103C1000810514CDCCCC3D256666864043803F4966
:103C200030490C0110A94CA90CE1033020C11AFF46
:103C3000010158A0097B14524185EB4141A9DC09DF
:103C400014E8011A5A20486340405AA0080136136C
:103C5000D0012A2084600D4C26933F022AA93EA45D
:103C600021393E1AC09829042F803F9A99993E0421
:103C7000412D3D0A973E042C333393187904213AA1
:103C8000E00438083333333F7B146E042D666666D8
:103C90003F601ADC043AE868011B2D0102030404AA
:083CA0003506070809000000C9
:04000005080000C926
:00000001FF
